{
  "_format": "hh-sol-artifact-1",
  "contractName": "DAROSmartContract",
  "sourceName": "contracts/DARO.sol",
  "abi": [
    {
      "inputs": [
        {
          "internalType": "address",
          "name": "gateway_",
          "type": "address"
        },
        {
          "internalType": "address",
          "name": "gasReceiver_",
          "type": "address"
        }
      ],
      "stateMutability": "nonpayable",
      "type": "constructor"
    },
    {
      "inputs": [],
      "name": "InvalidAddress",
      "type": "error"
    },
    {
      "inputs": [],
      "name": "NotApprovedByGateway",
      "type": "error"
    },
    {
      "anonymous": false,
      "inputs": [
        {
          "indexed": true,
          "internalType": "uint256",
          "name": "publicationId",
          "type": "uint256"
        },
        {
          "indexed": true,
          "internalType": "address",
          "name": "researcher",
          "type": "address"
        }
      ],
      "name": "PublicationSubmitted",
      "type": "event"
    },
    {
      "inputs": [
        {
          "internalType": "string",
          "name": "_title",
          "type": "string"
        },
        {
          "internalType": "string",
          "name": "_description",
          "type": "string"
        },
        {
          "internalType": "string",
          "name": "_fileHash",
          "type": "string"
        }
      ],
      "name": "addPublication",
      "outputs": [],
      "stateMutability": "nonpayable",
      "type": "function"
    },
    {
      "inputs": [
        {
          "internalType": "uint256",
          "name": "_id",
          "type": "uint256"
        },
        {
          "internalType": "string",
          "name": "_feedback",
          "type": "string"
        },
        {
          "internalType": "uint256",
          "name": "_score",
          "type": "uint256"
        }
      ],
      "name": "addReview",
      "outputs": [],
      "stateMutability": "nonpayable",
      "type": "function"
    },
    {
      "inputs": [
        {
          "internalType": "uint256",
          "name": "_id",
          "type": "uint256"
        },
        {
          "internalType": "address",
          "name": "_contributor",
          "type": "address"
        }
      ],
      "name": "allowContributor",
      "outputs": [],
      "stateMutability": "nonpayable",
      "type": "function"
    },
    {
      "inputs": [
        {
          "internalType": "uint256",
          "name": "_id",
          "type": "uint256"
        },
        {
          "internalType": "string",
          "name": "_description",
          "type": "string"
        }
      ],
      "name": "contribute",
      "outputs": [],
      "stateMutability": "nonpayable",
      "type": "function"
    },
    {
      "inputs": [
        {
          "internalType": "uint256",
          "name": "_id",
          "type": "uint256"
        }
      ],
      "name": "contributeFunds",
      "outputs": [],
      "stateMutability": "payable",
      "type": "function"
    },
    {
      "inputs": [
        {
          "internalType": "uint256",
          "name": "",
          "type": "uint256"
        },
        {
          "internalType": "address",
          "name": "",
          "type": "address"
        }
      ],
      "name": "contributors",
      "outputs": [
        {
          "internalType": "bool",
          "name": "",
          "type": "bool"
        }
      ],
      "stateMutability": "view",
      "type": "function"
    },
    {
      "inputs": [
        {
          "internalType": "uint256",
          "name": "_id",
          "type": "uint256"
        }
      ],
      "name": "distributeFunds",
      "outputs": [],
      "stateMutability": "nonpayable",
      "type": "function"
    },
    {
      "inputs": [
        {
          "internalType": "bytes32",
          "name": "commandId",
          "type": "bytes32"
        },
        {
          "internalType": "string",
          "name": "sourceChain",
          "type": "string"
        },
        {
          "internalType": "string",
          "name": "sourceAddress",
          "type": "string"
        },
        {
          "internalType": "bytes",
          "name": "payload",
          "type": "bytes"
        }
      ],
      "name": "execute",
      "outputs": [],
      "stateMutability": "nonpayable",
      "type": "function"
    },
    {
      "inputs": [
        {
          "internalType": "bytes32",
          "name": "commandId",
          "type": "bytes32"
        },
        {
          "internalType": "string",
          "name": "sourceChain",
          "type": "string"
        },
        {
          "internalType": "string",
          "name": "sourceAddress",
          "type": "string"
        },
        {
          "internalType": "bytes",
          "name": "payload",
          "type": "bytes"
        },
        {
          "internalType": "string",
          "name": "tokenSymbol",
          "type": "string"
        },
        {
          "internalType": "uint256",
          "name": "amount",
          "type": "uint256"
        }
      ],
      "name": "executeWithToken",
      "outputs": [],
      "stateMutability": "nonpayable",
      "type": "function"
    },
    {
      "inputs": [
        {
          "internalType": "uint256",
          "name": "",
          "type": "uint256"
        },
        {
          "internalType": "uint256",
          "name": "",
          "type": "uint256"
        }
      ],
      "name": "filesHash",
      "outputs": [
        {
          "internalType": "string",
          "name": "",
          "type": "string"
        }
      ],
      "stateMutability": "view",
      "type": "function"
    },
    {
      "inputs": [],
      "name": "gasService",
      "outputs": [
        {
          "internalType": "contract IAxelarGasService",
          "name": "",
          "type": "address"
        }
      ],
      "stateMutability": "view",
      "type": "function"
    },
    {
      "inputs": [],
      "name": "gateway",
      "outputs": [
        {
          "internalType": "contract IAxelarGateway",
          "name": "",
          "type": "address"
        }
      ],
      "stateMutability": "view",
      "type": "function"
    },
    {
      "inputs": [
        {
          "internalType": "uint256",
          "name": "_id",
          "type": "uint256"
        }
      ],
      "name": "getAverageScore",
      "outputs": [
        {
          "internalType": "uint256",
          "name": "",
          "type": "uint256"
        }
      ],
      "stateMutability": "view",
      "type": "function"
    },
    {
      "inputs": [
        {
          "internalType": "uint256",
          "name": "",
          "type": "uint256"
        }
      ],
      "name": "isOwner",
      "outputs": [
        {
          "internalType": "address",
          "name": "",
          "type": "address"
        }
      ],
      "stateMutability": "view",
      "type": "function"
    },
    {
      "inputs": [
        {
          "internalType": "address",
          "name": "",
          "type": "address"
        },
        {
          "internalType": "uint256",
          "name": "",
          "type": "uint256"
        }
      ],
      "name": "messages",
      "outputs": [
        {
          "internalType": "string",
          "name": "",
          "type": "string"
        }
      ],
      "stateMutability": "view",
      "type": "function"
    },
    {
      "inputs": [
        {
          "internalType": "uint256",
          "name": "",
          "type": "uint256"
        }
      ],
      "name": "publications",
      "outputs": [
        {
          "internalType": "uint256",
          "name": "id",
          "type": "uint256"
        },
        {
          "internalType": "address",
          "name": "researcher",
          "type": "address"
        },
        {
          "internalType": "string",
          "name": "title",
          "type": "string"
        },
        {
          "internalType": "string",
          "name": "description",
          "type": "string"
        },
        {
          "internalType": "uint256",
          "name": "timestamp",
          "type": "uint256"
        },
        {
          "internalType": "bool",
          "name": "reviewed",
          "type": "bool"
        },
        {
          "internalType": "bool",
          "name": "rewarded",
          "type": "bool"
        },
        {
          "internalType": "uint256",
          "name": "totalContributions",
          "type": "uint256"
        }
      ],
      "stateMutability": "view",
      "type": "function"
    },
    {
      "inputs": [
        {
          "internalType": "address",
          "name": "",
          "type": "address"
        },
        {
          "internalType": "uint256",
          "name": "",
          "type": "uint256"
        }
      ],
      "name": "publicationsByAddress",
      "outputs": [
        {
          "internalType": "uint256",
          "name": "id",
          "type": "uint256"
        },
        {
          "internalType": "address",
          "name": "researcher",
          "type": "address"
        },
        {
          "internalType": "string",
          "name": "title",
          "type": "string"
        },
        {
          "internalType": "string",
          "name": "description",
          "type": "string"
        },
        {
          "internalType": "uint256",
          "name": "timestamp",
          "type": "uint256"
        },
        {
          "internalType": "bool",
          "name": "reviewed",
          "type": "bool"
        },
        {
          "internalType": "bool",
          "name": "rewarded",
          "type": "bool"
        },
        {
          "internalType": "uint256",
          "name": "totalContributions",
          "type": "uint256"
        }
      ],
      "stateMutability": "view",
      "type": "function"
    },
    {
      "inputs": [
        {
          "internalType": "uint256",
          "name": "",
          "type": "uint256"
        },
        {
          "internalType": "address",
          "name": "",
          "type": "address"
        },
        {
          "internalType": "uint256",
          "name": "",
          "type": "uint256"
        }
      ],
      "name": "requestContribution",
      "outputs": [
        {
          "internalType": "uint256",
          "name": "timestamp",
          "type": "uint256"
        },
        {
          "internalType": "address",
          "name": "userAddress",
          "type": "address"
        },
        {
          "internalType": "string",
          "name": "data",
          "type": "string"
        }
      ],
      "stateMutability": "view",
      "type": "function"
    },
    {
      "inputs": [
        {
          "internalType": "uint256",
          "name": "",
          "type": "uint256"
        }
      ],
      "name": "reviews",
      "outputs": [
        {
          "internalType": "address",
          "name": "reviewer",
          "type": "address"
        },
        {
          "internalType": "string",
          "name": "feedback",
          "type": "string"
        },
        {
          "internalType": "uint256",
          "name": "score",
          "type": "uint256"
        }
      ],
      "stateMutability": "view",
      "type": "function"
    },
    {
      "inputs": [],
      "name": "sourceAddress",
      "outputs": [
        {
          "internalType": "string",
          "name": "",
          "type": "string"
        }
      ],
      "stateMutability": "view",
      "type": "function"
    },
    {
      "inputs": [],
      "name": "sourceChain",
      "outputs": [
        {
          "internalType": "string",
          "name": "",
          "type": "string"
        }
      ],
      "stateMutability": "view",
      "type": "function"
    },
    {
      "inputs": [
        {
          "internalType": "uint256",
          "name": "_id",
          "type": "uint256"
        },
        {
          "internalType": "string",
          "name": "_fileHash",
          "type": "string"
        }
      ],
      "name": "updatePublications",
      "outputs": [],
      "stateMutability": "nonpayable",
      "type": "function"
    },
    {
      "inputs": [
        {
          "internalType": "uint256",
          "name": "",
          "type": "uint256"
        },
        {
          "internalType": "uint256",
          "name": "",
          "type": "uint256"
        }
      ],
      "name": "userUpdates",
      "outputs": [
        {
          "internalType": "uint256",
          "name": "timestamp",
          "type": "uint256"
        },
        {
          "internalType": "address",
          "name": "userAddress",
          "type": "address"
        },
        {
          "internalType": "string",
          "name": "data",
          "type": "string"
        }
      ],
      "stateMutability": "view",
      "type": "function"
    },
    {
      "inputs": [],
      "name": "value",
      "outputs": [
        {
          "internalType": "string",
          "name": "",
          "type": "string"
        }
      ],
      "stateMutability": "view",
      "type": "function"
    }
  ],
  "bytecode": "0x60c06040523480156200001157600080fd5b5060405162003a5538038062003a5583398181016040528101906200003791906200017a565b81600073ffffffffffffffffffffffffffffffffffffffff168173ffffffffffffffffffffffffffffffffffffffff16036200009f576040517fe6c4247b00000000000000000000000000000000000000000000000000000000815260040160405180910390fd5b8073ffffffffffffffffffffffffffffffffffffffff1660808173ffffffffffffffffffffffffffffffffffffffff1681525050508073ffffffffffffffffffffffffffffffffffffffff1660a08173ffffffffffffffffffffffffffffffffffffffff16815250505050620001c1565b600080fd5b600073ffffffffffffffffffffffffffffffffffffffff82169050919050565b6000620001428262000115565b9050919050565b620001548162000135565b81146200016057600080fd5b50565b600081519050620001748162000149565b92915050565b6000806040838503121562000194576200019362000110565b5b6000620001a48582860162000163565b9250506020620001b78582860162000163565b9150509250929050565b60805160a051613859620001fc60003960008181610be20152610de00152600081816106ff0152818161073f0152610cec01526138596000f3fe60806040526004361061014b5760003560e01c806394cdf85f116100b6578063ca1146e01161006f578063ca1146e0146104cd578063de3a2b59146104f6578063e7315f9914610533578063e7c360231461055c578063e83ddcea14610599578063f726f715146105d85761014b565b806394cdf85f14610390578063b05c318b146103b9578063b0fa8444146103e2578063b12ff06c1461040d578063b516a73914610451578063c45d9bea146104905761014b565b806339c7639c1161010857806339c7639c1461028f5780633fa4f245146102cc57806348a05132146102f757806349160658146103135780636a22d8cc1461033c57806382e5df22146103675761014b565b80630705841314610150578063116191b61461018f5780631a98b2e0146101ba5780631c6ffa46146101e35780631fd5bbab1461020e5780632de4ea6414610252575b600080fd5b34801561015c57600080fd5b50610177600480360381019061017291906123b0565b610601565b604051610186939291906124b1565b60405180910390f35b34801561019b57600080fd5b506101a46106fd565b6040516101b1919061254e565b60405180910390f35b3480156101c657600080fd5b506101e160048036038101906101dc919061265a565b610721565b005b3480156101ef57600080fd5b506101f861083d565b604051610205919061276a565b60405180910390f35b34801561021a57600080fd5b506102356004803603810190610230919061278c565b6108cb565b6040516102499897969594939291906127d4565b60405180910390f35b34801561025e57600080fd5b5061027960048036038101906102749190612860565b610a5d565b604051610286919061276a565b60405180910390f35b34801561029b57600080fd5b506102b660048036038101906102b1919061278c565b610b16565b6040516102c391906128a0565b60405180910390f35b3480156102d857600080fd5b506102e1610b49565b6040516102ee919061276a565b60405180910390f35b610311600480360381019061030c919061278c565b610bd7565b005b34801561031f57600080fd5b5061033a600480360381019061033591906128bb565b610cce565b005b34801561034857600080fd5b50610351610dde565b60405161035e91906129a5565b60405180910390f35b34801561037357600080fd5b5061038e60048036038101906103899190612af0565b610e02565b005b34801561039c57600080fd5b506103b760048036038101906103b29190612b4c565b611030565b005b3480156103c557600080fd5b506103e060048036038101906103db9190612bbb565b6111e8565b005b3480156103ee57600080fd5b506103f7611680565b604051610404919061276a565b60405180910390f35b34801561041957600080fd5b50610434600480360381019061042f9190612c62565b61170e565b6040516104489897969594939291906127d4565b60405180910390f35b34801561045d57600080fd5b5061047860048036038101906104739190612860565b6118bd565b604051610487939291906124b1565b60405180910390f35b34801561049c57600080fd5b506104b760048036038101906104b29190612c62565b6119ac565b6040516104c4919061276a565b60405180910390f35b3480156104d957600080fd5b506104f460048036038101906104ef9190612ca2565b611a65565b005b34801561050257600080fd5b5061051d6004803603810190610518919061278c565b611beb565b60405161052a9190612ce2565b60405180910390f35b34801561053f57600080fd5b5061055a60048036038101906105559190612af0565b611d33565b005b34801561056857600080fd5b50610583600480360381019061057e9190612ca2565b611e50565b6040516105909190612cfd565b60405180910390f35b3480156105a557600080fd5b506105c060048036038101906105bb919061278c565b611e7f565b6040516105cf93929190612d18565b60405180910390f35b3480156105e457600080fd5b506105ff60048036038101906105fa919061278c565b611f51565b005b6003602052826000526040600020602052816000526040600020818154811061062957600080fd5b906000526020600020906003020160009250925050508060000154908060010160009054906101000a900473ffffffffffffffffffffffffffffffffffffffff169080600201805461067a90612d85565b80601f01602080910402602001604051908101604052809291908181526020018280546106a690612d85565b80156106f35780601f106106c8576101008083540402835291602001916106f3565b820191906000526020600020905b8154815290600101906020018083116106d657829003601f168201915b5050505050905083565b7f000000000000000000000000000000000000000000000000000000000000000081565b60008585604051610733929190612de6565b604051809103902090507f000000000000000000000000000000000000000000000000000000000000000073ffffffffffffffffffffffffffffffffffffffff16631876eed98c8c8c8c8c878b8b8b6040518a63ffffffff1660e01b81526004016107a699989796959493929190612e3b565b6020604051808303816000875af11580156107c5573d6000803e3d6000fd5b505050506040513d601f19601f820116820180604052508101906107e99190612ee3565b61081f576040517f500c44b400000000000000000000000000000000000000000000000000000000815260040160405180910390fd5b6108308a8a8a8a8a8a8a8a8a6121bf565b5050505050505050505050565b600b805461084a90612d85565b80601f016020809104026020016040519081016040528092919081815260200182805461087690612d85565b80156108c35780601f10610898576101008083540402835291602001916108c3565b820191906000526020600020905b8154815290600101906020018083116108a657829003601f168201915b505050505081565b60006020528060005260406000206000915090508060000154908060010160009054906101000a900473ffffffffffffffffffffffffffffffffffffffff169080600201805461091a90612d85565b80601f016020809104026020016040519081016040528092919081815260200182805461094690612d85565b80156109935780601f1061096857610100808354040283529160200191610993565b820191906000526020600020905b81548152906001019060200180831161097657829003601f168201915b5050505050908060030180546109a890612d85565b80601f01602080910402602001604051908101604052809291908181526020018280546109d490612d85565b8015610a215780601f106109f657610100808354040283529160200191610a21565b820191906000526020600020905b815481529060010190602001808311610a0457829003601f168201915b5050505050908060040154908060050160009054906101000a900460ff16908060050160019054906101000a900460ff16908060080154905088565b60086020528160005260406000208181548110610a7957600080fd5b90600052602060002001600091509150508054610a9590612d85565b80601f0160208091040260200160405190810160405280929190818152602001828054610ac190612d85565b8015610b0e5780601f10610ae357610100808354040283529160200191610b0e565b820191906000526020600020905b815481529060010190602001808311610af157829003601f168201915b505050505081565b60076020528060005260406000206000915054906101000a900473ffffffffffffffffffffffffffffffffffffffff1681565b600d8054610b5690612d85565b80601f0160208091040260200160405190810160405280929190818152602001828054610b8290612d85565b8015610bcf5780601f10610ba457610100808354040283529160200191610bcf565b820191906000526020600020905b815481529060010190602001808311610bb257829003601f168201915b505050505081565b6000341115610c87577f000000000000000000000000000000000000000000000000000000000000000073ffffffffffffffffffffffffffffffffffffffff16630c93e3bb6103e834610c2a9190612f6e565b30600b600c600036336040518863ffffffff1660e01b8152600401610c5496959493929190613076565b6000604051808303818588803b158015610c6d57600080fd5b505af1158015610c81573d6000803e3d6000fd5b50505050505b6103e834610c959190612f6e565b34610ca091906130e0565b6000808381526020019081526020016000206008016000828254610cc49190613114565b9250508190555050565b60008282604051610ce0929190612de6565b604051809103902090507f000000000000000000000000000000000000000000000000000000000000000073ffffffffffffffffffffffffffffffffffffffff16635f6970c38989898989876040518763ffffffff1660e01b8152600401610d4d96959493929190613148565b6020604051808303816000875af1158015610d6c573d6000803e3d6000fd5b505050506040513d601f19601f82011682018060405250810190610d909190612ee3565b610dc6576040517f500c44b400000000000000000000000000000000000000000000000000000000815260040160405180910390fd5b610dd48787878787876121ca565b5050505050505050565b7f000000000000000000000000000000000000000000000000000000000000000081565b816007600082815260200190815260200160002060009054906101000a900473ffffffffffffffffffffffffffffffffffffffff1673ffffffffffffffffffffffffffffffffffffffff163373ffffffffffffffffffffffffffffffffffffffff161480610eca57506009600082815260200190815260200160002060003373ffffffffffffffffffffffffffffffffffffffff1673ffffffffffffffffffffffffffffffffffffffff16815260200190815260200160002060009054906101000a900460ff165b610f09576040517f08c379a0000000000000000000000000000000000000000000000000000000008152600401610f0090613211565b60405180910390fd5b6008600084815260200190815260200160002082908060018154018082558091505060019003906000526020600020016000909190919091509081610f4e91906133be565b50600060405180606001604052804281526020013373ffffffffffffffffffffffffffffffffffffffff168152602001848152509050600260008581526020019081526020016000208190806001815401808255809150506001900390600052602060002090600302016000909190919091506000820151816000015560208201518160010160006101000a81548173ffffffffffffffffffffffffffffffffffffffff021916908373ffffffffffffffffffffffffffffffffffffffff160217905550604082015181600201908161102791906133be565b50505050505050565b6000151560008085815260200190815260200160002060050160009054906101000a900460ff16151514611099576040517f08c379a000000000000000000000000000000000000000000000000000000000815260040161109090613502565b60405180910390fd5b600060405180606001604052803373ffffffffffffffffffffffffffffffffffffffff168152602001848152602001838152509050600060016005546110df9190613114565b9050600560008154809291906110f490613522565b9190505550600080868152602001908152602001600020600601819080600181540180825580915050600190039060005260206000200160009091909190915055816001600083815260200190815260200160002060008201518160000160006101000a81548173ffffffffffffffffffffffffffffffffffffffff021916908373ffffffffffffffffffffffffffffffffffffffff16021790555060208201518160010190816111a591906133be565b5060408201518160020155905050600160008087815260200190815260200160002060050160006101000a81548160ff0219169083151502179055505050505050565b600460008154809291906111fb90613522565b9190505550600060405180610140016040528060045481526020013373ffffffffffffffffffffffffffffffffffffffff168152602001858152602001848152602001428152602001600015158152602001600015158152602001600067ffffffffffffffff811115611271576112706129c5565b5b60405190808252806020026020018201604052801561129f5781602001602082028036833780820191505090505b508152602001600067ffffffffffffffff8111156112c0576112bf6129c5565b5b6040519080825280602002602001820160405280156112ee5781602001602082028036833780820191505090505b508152602001600081525090508060008060045481526020019081526020016000206000820151816000015560208201518160010160006101000a81548173ffffffffffffffffffffffffffffffffffffffff021916908373ffffffffffffffffffffffffffffffffffffffff160217905550604082015181600201908161137691906133be565b50606082015181600301908161138c91906133be565b506080820151816004015560a08201518160050160006101000a81548160ff02191690831515021790555060c08201518160050160016101000a81548160ff02191690831515021790555060e08201518160060190805190602001906113f3929190612214565b50610100820151816007019080519060200190611411929190612261565b506101208201518160080155905050600660003373ffffffffffffffffffffffffffffffffffffffff1673ffffffffffffffffffffffffffffffffffffffff1681526020019081526020016000208190806001815401808255809150506001900390600052602060002090600902016000909190919091506000820151816000015560208201518160010160006101000a81548173ffffffffffffffffffffffffffffffffffffffff021916908373ffffffffffffffffffffffffffffffffffffffff16021790555060408201518160020190816114ef91906133be565b50606082015181600301908161150591906133be565b506080820151816004015560a08201518160050160006101000a81548160ff02191690831515021790555060c08201518160050160016101000a81548160ff02191690831515021790555060e082015181600601908051906020019061156c929190612214565b5061010082015181600701908051906020019061158a929190612261565b5061012082015181600801555050600860006004548152602001908152602001600020829080600181540180825580915050600190039060005260206000200160009091909190915090816115df91906133be565b503360076000600454815260200190815260200160002060006101000a81548173ffffffffffffffffffffffffffffffffffffffff021916908373ffffffffffffffffffffffffffffffffffffffff1602179055503373ffffffffffffffffffffffffffffffffffffffff166004547fc531c31b7b8399a6fb656c936b490c23f870bae5262e87b8d24b0770572d409760405160405180910390a350505050565b600c805461168d90612d85565b80601f01602080910402602001604051908101604052809291908181526020018280546116b990612d85565b80156117065780601f106116db57610100808354040283529160200191611706565b820191906000526020600020905b8154815290600101906020018083116116e957829003601f168201915b505050505081565b6006602052816000526040600020818154811061172a57600080fd5b9060005260206000209060090201600091509150508060000154908060010160009054906101000a900473ffffffffffffffffffffffffffffffffffffffff169080600201805461177a90612d85565b80601f01602080910402602001604051908101604052809291908181526020018280546117a690612d85565b80156117f35780601f106117c8576101008083540402835291602001916117f3565b820191906000526020600020905b8154815290600101906020018083116117d657829003601f168201915b50505050509080600301805461180890612d85565b80601f016020809104026020016040519081016040528092919081815260200182805461183490612d85565b80156118815780601f1061185657610100808354040283529160200191611881565b820191906000526020600020905b81548152906001019060200180831161186457829003601f168201915b5050505050908060040154908060050160009054906101000a900460ff16908060050160019054906101000a900460ff16908060080154905088565b600260205281600052604060002081815481106118d957600080fd5b9060005260206000209060030201600091509150508060000154908060010160009054906101000a900473ffffffffffffffffffffffffffffffffffffffff169080600201805461192990612d85565b80601f016020809104026020016040519081016040528092919081815260200182805461195590612d85565b80156119a25780601f10611977576101008083540402835291602001916119a2565b820191906000526020600020905b81548152906001019060200180831161198557829003601f168201915b5050505050905083565b600a60205281600052604060002081815481106119c857600080fd5b906000526020600020016000915091505080546119e490612d85565b80601f0160208091040260200160405190810160405280929190818152602001828054611a1090612d85565b8015611a5d5780601f10611a3257610100808354040283529160200191611a5d565b820191906000526020600020905b815481529060010190602001808311611a4057829003601f168201915b505050505081565b816007600082815260200190815260200160002060009054906101000a900473ffffffffffffffffffffffffffffffffffffffff1673ffffffffffffffffffffffffffffffffffffffff163373ffffffffffffffffffffffffffffffffffffffff1614611b07576040517f08c379a0000000000000000000000000000000000000000000000000000000008152600401611afe906135dc565b60405180910390fd5b60016009600085815260200190815260200160002060008473ffffffffffffffffffffffffffffffffffffffff1673ffffffffffffffffffffffffffffffffffffffff16815260200190815260200160002060006101000a81548160ff021916908315150217905550600080848152602001908152602001600020600701829080600181540180825580915050600190039060005260206000200160009091909190916101000a81548173ffffffffffffffffffffffffffffffffffffffff021916908373ffffffffffffffffffffffffffffffffffffffff160217905550505050565b60006001151560008084815260200190815260200160002060050160009054906101000a900460ff16151514611c56576040517f08c379a0000000000000000000000000000000000000000000000000000000008152600401611c4d9061366e565b60405180910390fd5b6000806000848152602001908152602001600020600601805480602002602001604051908101604052809291908181526020018280548015611cb757602002820191906000526020600020905b815481526020019060010190808311611ca3575b505050505090506000805b8251811015611d1c5760016000848381518110611ce257611ce161368e565b5b602002602001015181526020019081526020016000206002015482611d079190613114565b91508080611d1490613522565b915050611cc2565b50815181611d2a9190612f6e565b92505050919050565b600060405180606001604052804281526020013373ffffffffffffffffffffffffffffffffffffffff1681526020018381525090506003600084815260200190815260200160002060003373ffffffffffffffffffffffffffffffffffffffff1673ffffffffffffffffffffffffffffffffffffffff1681526020019081526020016000208190806001815401808255809150506001900390600052602060002090600302016000909190919091506000820151816000015560208201518160010160006101000a81548173ffffffffffffffffffffffffffffffffffffffff021916908373ffffffffffffffffffffffffffffffffffffffff1602179055506040820151816002019081611e4891906133be565b505050505050565b60096020528160005260406000206020528060005260406000206000915091509054906101000a900460ff1681565b60016020528060005260406000206000915090508060000160009054906101000a900473ffffffffffffffffffffffffffffffffffffffff1690806001018054611ec890612d85565b80601f0160208091040260200160405190810160405280929190818152602001828054611ef490612d85565b8015611f415780601f10611f1657610100808354040283529160200191611f41565b820191906000526020600020905b815481529060010190602001808311611f2457829003601f168201915b5050505050908060020154905083565b806007600082815260200190815260200160002060009054906101000a900473ffffffffffffffffffffffffffffffffffffffff1673ffffffffffffffffffffffffffffffffffffffff163373ffffffffffffffffffffffffffffffffffffffff1614611ff3576040517f08c379a0000000000000000000000000000000000000000000000000000000008152600401611fea906135dc565b60405180910390fd5b60008060008481526020019081526020016000206008015490506000606460468361201e91906136bd565b6120289190612f6e565b90506000818361203891906130e0565b905060008086815260200190815260200160002060010160009054906101000a900473ffffffffffffffffffffffffffffffffffffffff1673ffffffffffffffffffffffffffffffffffffffff166108fc839081150290604051600060405180830381858888f193505050501580156120b5573d6000803e3d6000fd5b5060005b600080878152602001908152602001600020600701805490508110156121b357600080600088815260200190815260200160002060070182815481106121025761210161368e565b5b9060005260206000200160009054906101000a900473ffffffffffffffffffffffffffffffffffffffff169050600080600089815260200190815260200160002060070180549050846121559190612f6e565b90508173ffffffffffffffffffffffffffffffffffffffff166108fc829081150290604051600060405180830381858888f1935050505015801561219d573d6000803e3d6000fd5b50505080806121ab90613522565b9150506120b9565b50600092505050505050565b505050505050505050565b81818101906121d991906136ff565b600d90816121e791906133be565b508585600b91826121f9929190613753565b508383600c918261220b929190613753565b50505050505050565b828054828255906000526020600020908101928215612250579160200282015b8281111561224f578251825591602001919060010190612234565b5b50905061225d91906122eb565b5090565b8280548282559060005260206000209081019282156122da579160200282015b828111156122d95782518260006101000a81548173ffffffffffffffffffffffffffffffffffffffff021916908373ffffffffffffffffffffffffffffffffffffffff16021790555091602001919060010190612281565b5b5090506122e791906122eb565b5090565b5b808211156123045760008160009055506001016122ec565b5090565b6000604051905090565b600080fd5b600080fd5b6000819050919050565b61232f8161231c565b811461233a57600080fd5b50565b60008135905061234c81612326565b92915050565b600073ffffffffffffffffffffffffffffffffffffffff82169050919050565b600061237d82612352565b9050919050565b61238d81612372565b811461239857600080fd5b50565b6000813590506123aa81612384565b92915050565b6000806000606084860312156123c9576123c8612312565b5b60006123d78682870161233d565b93505060206123e88682870161239b565b92505060406123f98682870161233d565b9150509250925092565b61240c8161231c565b82525050565b61241b81612372565b82525050565b600081519050919050565b600082825260208201905092915050565b60005b8381101561245b578082015181840152602081019050612440565b60008484015250505050565b6000601f19601f8301169050919050565b600061248382612421565b61248d818561242c565b935061249d81856020860161243d565b6124a681612467565b840191505092915050565b60006060820190506124c66000830186612403565b6124d36020830185612412565b81810360408301526124e58184612478565b9050949350505050565b6000819050919050565b600061251461250f61250a84612352565b6124ef565b612352565b9050919050565b6000612526826124f9565b9050919050565b60006125388261251b565b9050919050565b6125488161252d565b82525050565b6000602082019050612563600083018461253f565b92915050565b6000819050919050565b61257c81612569565b811461258757600080fd5b50565b60008135905061259981612573565b92915050565b600080fd5b600080fd5b600080fd5b60008083601f8401126125c4576125c361259f565b5b8235905067ffffffffffffffff8111156125e1576125e06125a4565b5b6020830191508360018202830111156125fd576125fc6125a9565b5b9250929050565b60008083601f84011261261a5761261961259f565b5b8235905067ffffffffffffffff811115612637576126366125a4565b5b602083019150836001820283011115612653576126526125a9565b5b9250929050565b60008060008060008060008060008060c08b8d03121561267d5761267c612312565b5b600061268b8d828e0161258a565b9a505060208b013567ffffffffffffffff8111156126ac576126ab612317565b5b6126b88d828e016125ae565b995099505060408b013567ffffffffffffffff8111156126db576126da612317565b5b6126e78d828e016125ae565b975097505060608b013567ffffffffffffffff81111561270a57612709612317565b5b6127168d828e01612604565b955095505060808b013567ffffffffffffffff81111561273957612738612317565b5b6127458d828e016125ae565b935093505060a06127588d828e0161233d565b9150509295989b9194979a5092959850565b600060208201905081810360008301526127848184612478565b905092915050565b6000602082840312156127a2576127a1612312565b5b60006127b08482850161233d565b91505092915050565b60008115159050919050565b6127ce816127b9565b82525050565b6000610100820190506127ea600083018b612403565b6127f7602083018a612412565b81810360408301526128098189612478565b9050818103606083015261281d8188612478565b905061282c6080830187612403565b61283960a08301866127c5565b61284660c08301856127c5565b61285360e0830184612403565b9998505050505050505050565b6000806040838503121561287757612876612312565b5b60006128858582860161233d565b92505060206128968582860161233d565b9150509250929050565b60006020820190506128b56000830184612412565b92915050565b60008060008060008060006080888a0312156128da576128d9612312565b5b60006128e88a828b0161258a565b975050602088013567ffffffffffffffff81111561290957612908612317565b5b6129158a828b016125ae565b9650965050604088013567ffffffffffffffff81111561293857612937612317565b5b6129448a828b016125ae565b9450945050606088013567ffffffffffffffff81111561296757612966612317565b5b6129738a828b01612604565b925092505092959891949750929550565b600061298f8261251b565b9050919050565b61299f81612984565b82525050565b60006020820190506129ba6000830184612996565b92915050565b600080fd5b7f4e487b7100000000000000000000000000000000000000000000000000000000600052604160045260246000fd5b6129fd82612467565b810181811067ffffffffffffffff82111715612a1c57612a1b6129c5565b5b80604052505050565b6000612a2f612308565b9050612a3b82826129f4565b919050565b600067ffffffffffffffff821115612a5b57612a5a6129c5565b5b612a6482612467565b9050602081019050919050565b82818337600083830152505050565b6000612a93612a8e84612a40565b612a25565b905082815260208101848484011115612aaf57612aae6129c0565b5b612aba848285612a71565b509392505050565b600082601f830112612ad757612ad661259f565b5b8135612ae7848260208601612a80565b91505092915050565b60008060408385031215612b0757612b06612312565b5b6000612b158582860161233d565b925050602083013567ffffffffffffffff811115612b3657612b35612317565b5b612b4285828601612ac2565b9150509250929050565b600080600060608486031215612b6557612b64612312565b5b6000612b738682870161233d565b935050602084013567ffffffffffffffff811115612b9457612b93612317565b5b612ba086828701612ac2565b9250506040612bb18682870161233d565b9150509250925092565b600080600060608486031215612bd457612bd3612312565b5b600084013567ffffffffffffffff811115612bf257612bf1612317565b5b612bfe86828701612ac2565b935050602084013567ffffffffffffffff811115612c1f57612c1e612317565b5b612c2b86828701612ac2565b925050604084013567ffffffffffffffff811115612c4c57612c4b612317565b5b612c5886828701612ac2565b9150509250925092565b60008060408385031215612c7957612c78612312565b5b6000612c878582860161239b565b9250506020612c988582860161233d565b9150509250929050565b60008060408385031215612cb957612cb8612312565b5b6000612cc78582860161233d565b9250506020612cd88582860161239b565b9150509250929050565b6000602082019050612cf76000830184612403565b92915050565b6000602082019050612d1260008301846127c5565b92915050565b6000606082019050612d2d6000830186612412565b8181036020830152612d3f8185612478565b9050612d4e6040830184612403565b949350505050565b7f4e487b7100000000000000000000000000000000000000000000000000000000600052602260045260246000fd5b60006002820490506001821680612d9d57607f821691505b602082108103612db057612daf612d56565b5b50919050565b600081905092915050565b6000612dcd8385612db6565b9350612dda838584612a71565b82840190509392505050565b6000612df3828486612dc1565b91508190509392505050565b612e0881612569565b82525050565b6000612e1a838561242c565b9350612e27838584612a71565b612e3083612467565b840190509392505050565b600060c082019050612e50600083018c612dff565b8181036020830152612e63818a8c612e0e565b90508181036040830152612e7881888a612e0e565b9050612e876060830187612dff565b8181036080830152612e9a818587612e0e565b9050612ea960a0830184612403565b9a9950505050505050505050565b612ec0816127b9565b8114612ecb57600080fd5b50565b600081519050612edd81612eb7565b92915050565b600060208284031215612ef957612ef8612312565b5b6000612f0784828501612ece565b91505092915050565b7f4e487b7100000000000000000000000000000000000000000000000000000000600052601260045260246000fd5b7f4e487b7100000000000000000000000000000000000000000000000000000000600052601160045260246000fd5b6000612f798261231c565b9150612f848361231c565b925082612f9457612f93612f10565b5b828204905092915050565b60008190508160005260206000209050919050565b60008154612fc181612d85565b612fcb818661242c565b94506001821660008114612fe65760018114612ffc5761302f565b60ff19831686528115156020028601935061302f565b61300585612f9f565b60005b8381101561302757815481890152600182019150602081019050613008565b808801955050505b50505092915050565b600082825260208201905092915050565b60006130558385613038565b9350613062838584612a71565b61306b83612467565b840190509392505050565b600060a08201905061308b6000830189612412565b818103602083015261309d8188612fb4565b905081810360408301526130b18187612fb4565b905081810360608301526130c6818587613049565b90506130d56080830184612412565b979650505050505050565b60006130eb8261231c565b91506130f68361231c565b925082820390508181111561310e5761310d612f3f565b5b92915050565b600061311f8261231c565b915061312a8361231c565b925082820190508082111561314257613141612f3f565b5b92915050565b600060808201905061315d6000830189612dff565b8181036020830152613170818789612e0e565b90508181036040830152613185818587612e0e565b90506131946060830184612dff565b979650505050505050565b7f4f6e6c7920746865206f776e6572206f7220636f6e7472696275746f7273206360008201527f616e20706572666f726d207468697320616374696f6e00000000000000000000602082015250565b60006131fb60368361242c565b91506132068261319f565b604082019050919050565b6000602082019050818103600083015261322a816131ee565b9050919050565b60006020601f8301049050919050565b600082821b905092915050565b60006008830261327e7fffffffffffffffffffffffffffffffffffffffffffffffffffffffffffffffff82613241565b6132888683613241565b95508019841693508086168417925050509392505050565b60006132bb6132b66132b18461231c565b6124ef565b61231c565b9050919050565b6000819050919050565b6132d5836132a0565b6132e96132e1826132c2565b84845461324e565b825550505050565b600090565b6132fe6132f1565b6133098184846132cc565b505050565b5b8181101561332d576133226000826132f6565b60018101905061330f565b5050565b601f8211156133725761334381612f9f565b61334c84613231565b8101602085101561335b578190505b61336f61336785613231565b83018261330e565b50505b505050565b600082821c905092915050565b600061339560001984600802613377565b1980831691505092915050565b60006133ae8383613384565b9150826002028217905092915050565b6133c782612421565b67ffffffffffffffff8111156133e0576133df6129c5565b5b6133ea8254612d85565b6133f5828285613331565b600060209050601f8311600181146134285760008415613416578287015190505b61342085826133a2565b865550613488565b601f19841661343686612f9f565b60005b8281101561345e57848901518255600182019150602085019450602081019050613439565b8683101561347b5784890151613477601f891682613384565b8355505b6001600288020188555050505b505050505050565b7f5075626c69636174696f6e2068617320616c7265616479206265656e2072657660008201527f6965776564000000000000000000000000000000000000000000000000000000602082015250565b60006134ec60258361242c565b91506134f782613490565b604082019050919050565b6000602082019050818103600083015261351b816134df565b9050919050565b600061352d8261231c565b91507fffffffffffffffffffffffffffffffffffffffffffffffffffffffffffffffff820361355f5761355e612f3f565b5b600182019050919050565b7f4f6e6c7920746865206f776e65722063616e20706572666f726d20746869732060008201527f616374696f6e0000000000000000000000000000000000000000000000000000602082015250565b60006135c660268361242c565b91506135d18261356a565b604082019050919050565b600060208201905081810360008301526135f5816135b9565b9050919050565b7f5075626c69636174696f6e20686173206e6f74206265656e207265766965776560008201527f6420796574000000000000000000000000000000000000000000000000000000602082015250565b600061365860258361242c565b9150613663826135fc565b604082019050919050565b600060208201905081810360008301526136878161364b565b9050919050565b7f4e487b7100000000000000000000000000000000000000000000000000000000600052603260045260246000fd5b60006136c88261231c565b91506136d38361231c565b92508282026136e18161231c565b915082820484148315176136f8576136f7612f3f565b5b5092915050565b60006020828403121561371557613714612312565b5b600082013567ffffffffffffffff81111561373357613732612317565b5b61373f84828501612ac2565b91505092915050565b600082905092915050565b61375d8383613748565b67ffffffffffffffff811115613776576137756129c5565b5b6137808254612d85565b61378b828285613331565b6000601f8311600181146137ba57600084156137a8578287013590505b6137b285826133a2565b86555061381a565b601f1984166137c886612f9f565b60005b828110156137f0578489013582556001820191506020850194506020810190506137cb565b8683101561380d5784890135613809601f891682613384565b8355505b6001600288020188555050505b5050505050505056fea26469706673582212206df9a5d89bdae1532db7ef1b9655f1d9b76bac6d4cb9b1d10a202121fbb6e0d464736f6c63430008120033",
  "linkReferences": {},
  "deployedLinkReferences": {}
}