{
  "_format": "hh-sol-artifact-1",
  "contractName": "DAROSmartContract",
  "sourceName": "contracts/DARO.sol",
  "abi": [
    {
      "inputs": [
        {
          "internalType": "address",
          "name": "gateway_",
          "type": "address"
        },
        {
          "internalType": "address",
          "name": "gasReceiver_",
          "type": "address"
        }
      ],
      "stateMutability": "nonpayable",
      "type": "constructor"
    },
    {
      "inputs": [],
      "name": "InvalidAddress",
      "type": "error"
    },
    {
      "inputs": [],
      "name": "NotApprovedByGateway",
      "type": "error"
    },
    {
      "anonymous": false,
      "inputs": [
        {
          "indexed": true,
          "internalType": "uint256",
          "name": "publicationId",
          "type": "uint256"
        },
        {
          "indexed": true,
          "internalType": "address",
          "name": "researcher",
          "type": "address"
        }
      ],
      "name": "PublicationSubmitted",
      "type": "event"
    },
    {
      "inputs": [
        {
          "internalType": "string",
          "name": "_title",
          "type": "string"
        },
        {
          "internalType": "string",
          "name": "_description",
          "type": "string"
        },
        {
          "internalType": "string",
          "name": "_fileHash",
          "type": "string"
        }
      ],
      "name": "addPublication",
      "outputs": [],
      "stateMutability": "nonpayable",
      "type": "function"
    },
    {
      "inputs": [
        {
          "internalType": "uint256",
          "name": "_id",
          "type": "uint256"
        },
        {
          "internalType": "string",
          "name": "_feedback",
          "type": "string"
        },
        {
          "internalType": "uint256",
          "name": "_score",
          "type": "uint256"
        }
      ],
      "name": "addReview",
      "outputs": [],
      "stateMutability": "nonpayable",
      "type": "function"
    },
    {
      "inputs": [
        {
          "internalType": "uint256",
          "name": "_id",
          "type": "uint256"
        },
        {
          "internalType": "address",
          "name": "_contributor",
          "type": "address"
        }
      ],
      "name": "allowContributor",
      "outputs": [],
      "stateMutability": "nonpayable",
      "type": "function"
    },
    {
      "inputs": [
        {
          "internalType": "uint256",
          "name": "_id",
          "type": "uint256"
        },
        {
          "internalType": "string",
          "name": "_description",
          "type": "string"
        }
      ],
      "name": "contribute",
      "outputs": [],
      "stateMutability": "nonpayable",
      "type": "function"
    },
    {
      "inputs": [
        {
          "internalType": "uint256",
          "name": "_id",
          "type": "uint256"
        }
      ],
      "name": "contributeFunds",
      "outputs": [],
      "stateMutability": "payable",
      "type": "function"
    },
    {
      "inputs": [
        {
          "internalType": "uint256",
          "name": "",
          "type": "uint256"
        },
        {
          "internalType": "address",
          "name": "",
          "type": "address"
        }
      ],
      "name": "contributors",
      "outputs": [
        {
          "internalType": "bool",
          "name": "",
          "type": "bool"
        }
      ],
      "stateMutability": "view",
      "type": "function"
    },
    {
      "inputs": [
        {
          "internalType": "uint256",
          "name": "_id",
          "type": "uint256"
        }
      ],
      "name": "distributeFunds",
      "outputs": [],
      "stateMutability": "nonpayable",
      "type": "function"
    },
    {
      "inputs": [
        {
          "internalType": "bytes32",
          "name": "commandId",
          "type": "bytes32"
        },
        {
          "internalType": "string",
          "name": "sourceChain",
          "type": "string"
        },
        {
          "internalType": "string",
          "name": "sourceAddress",
          "type": "string"
        },
        {
          "internalType": "bytes",
          "name": "payload",
          "type": "bytes"
        }
      ],
      "name": "execute",
      "outputs": [],
      "stateMutability": "nonpayable",
      "type": "function"
    },
    {
      "inputs": [
        {
          "internalType": "bytes32",
          "name": "commandId",
          "type": "bytes32"
        },
        {
          "internalType": "string",
          "name": "sourceChain",
          "type": "string"
        },
        {
          "internalType": "string",
          "name": "sourceAddress",
          "type": "string"
        },
        {
          "internalType": "bytes",
          "name": "payload",
          "type": "bytes"
        },
        {
          "internalType": "string",
          "name": "tokenSymbol",
          "type": "string"
        },
        {
          "internalType": "uint256",
          "name": "amount",
          "type": "uint256"
        }
      ],
      "name": "executeWithToken",
      "outputs": [],
      "stateMutability": "nonpayable",
      "type": "function"
    },
    {
      "inputs": [
        {
          "internalType": "uint256",
          "name": "",
          "type": "uint256"
        },
        {
          "internalType": "uint256",
          "name": "",
          "type": "uint256"
        }
      ],
      "name": "filesHash",
      "outputs": [
        {
          "internalType": "string",
          "name": "",
          "type": "string"
        }
      ],
      "stateMutability": "view",
      "type": "function"
    },
    {
      "inputs": [],
      "name": "gasService",
      "outputs": [
        {
          "internalType": "contract IAxelarGasService",
          "name": "",
          "type": "address"
        }
      ],
      "stateMutability": "view",
      "type": "function"
    },
    {
      "inputs": [],
      "name": "gateway",
      "outputs": [
        {
          "internalType": "contract IAxelarGateway",
          "name": "",
          "type": "address"
        }
      ],
      "stateMutability": "view",
      "type": "function"
    },
    {
      "inputs": [
        {
          "internalType": "uint256",
          "name": "_id",
          "type": "uint256"
        }
      ],
      "name": "getAverageScore",
      "outputs": [
        {
          "internalType": "uint256",
          "name": "",
          "type": "uint256"
        }
      ],
      "stateMutability": "view",
      "type": "function"
    },
    {
      "inputs": [
        {
          "internalType": "address",
          "name": "_owner",
          "type": "address"
        }
      ],
      "name": "getMessage",
      "outputs": [
        {
          "components": [
            {
              "internalType": "uint256",
              "name": "timestamp",
              "type": "uint256"
            },
            {
              "internalType": "address",
              "name": "userAddress",
              "type": "address"
            },
            {
              "internalType": "string",
              "name": "data",
              "type": "string"
            },
            {
              "internalType": "bool",
              "name": "Approved",
              "type": "bool"
            }
          ],
          "internalType": "struct DAROSmartContract.Requests[]",
          "name": "",
          "type": "tuple[]"
        }
      ],
      "stateMutability": "view",
      "type": "function"
    },
    {
      "inputs": [
        {
          "internalType": "uint256",
          "name": "_id",
          "type": "uint256"
        }
      ],
      "name": "getPublicationById",
      "outputs": [
        {
          "components": [
            {
              "internalType": "uint256",
              "name": "id",
              "type": "uint256"
            },
            {
              "internalType": "address",
              "name": "researcher",
              "type": "address"
            },
            {
              "internalType": "string",
              "name": "title",
              "type": "string"
            },
            {
              "internalType": "string",
              "name": "description",
              "type": "string"
            },
            {
              "internalType": "uint256",
              "name": "timestamp",
              "type": "uint256"
            },
            {
              "internalType": "bool",
              "name": "reviewed",
              "type": "bool"
            },
            {
              "internalType": "bool",
              "name": "rewarded",
              "type": "bool"
            },
            {
              "internalType": "uint256[]",
              "name": "reviewIds",
              "type": "uint256[]"
            },
            {
              "internalType": "address[]",
              "name": "contributors",
              "type": "address[]"
            },
            {
              "internalType": "uint256",
              "name": "totalContributions",
              "type": "uint256"
            }
          ],
          "internalType": "struct DAROSmartContract.Publication",
          "name": "",
          "type": "tuple"
        }
      ],
      "stateMutability": "view",
      "type": "function"
    },
    {
      "inputs": [
        {
          "internalType": "address",
          "name": "_owner",
          "type": "address"
        }
      ],
      "name": "getPublicationsByAddress",
      "outputs": [
        {
          "components": [
            {
              "internalType": "uint256",
              "name": "id",
              "type": "uint256"
            },
            {
              "internalType": "address",
              "name": "researcher",
              "type": "address"
            },
            {
              "internalType": "string",
              "name": "title",
              "type": "string"
            },
            {
              "internalType": "string",
              "name": "description",
              "type": "string"
            },
            {
              "internalType": "uint256",
              "name": "timestamp",
              "type": "uint256"
            },
            {
              "internalType": "bool",
              "name": "reviewed",
              "type": "bool"
            },
            {
              "internalType": "bool",
              "name": "rewarded",
              "type": "bool"
            },
            {
              "internalType": "uint256[]",
              "name": "reviewIds",
              "type": "uint256[]"
            },
            {
              "internalType": "address[]",
              "name": "contributors",
              "type": "address[]"
            },
            {
              "internalType": "uint256",
              "name": "totalContributions",
              "type": "uint256"
            }
          ],
          "internalType": "struct DAROSmartContract.Publication[]",
          "name": "",
          "type": "tuple[]"
        }
      ],
      "stateMutability": "view",
      "type": "function"
    },
    {
      "inputs": [
        {
          "internalType": "uint256",
          "name": "_id",
          "type": "uint256"
        }
      ],
      "name": "getReview",
      "outputs": [
        {
          "components": [
            {
              "internalType": "address",
              "name": "reviewer",
              "type": "address"
            },
            {
              "internalType": "string",
              "name": "feedback",
              "type": "string"
            },
            {
              "internalType": "uint256",
              "name": "score",
              "type": "uint256"
            }
          ],
          "internalType": "struct DAROSmartContract.Review[]",
          "name": "",
          "type": "tuple[]"
        }
      ],
      "stateMutability": "view",
      "type": "function"
    },
    {
      "inputs": [
        {
          "internalType": "uint256",
          "name": "",
          "type": "uint256"
        },
        {
          "internalType": "uint256",
          "name": "",
          "type": "uint256"
        }
      ],
      "name": "getReviews",
      "outputs": [
        {
          "internalType": "address",
          "name": "reviewer",
          "type": "address"
        },
        {
          "internalType": "string",
          "name": "feedback",
          "type": "string"
        },
        {
          "internalType": "uint256",
          "name": "score",
          "type": "uint256"
        }
      ],
      "stateMutability": "view",
      "type": "function"
    },
    {
      "inputs": [
        {
          "internalType": "uint256",
          "name": "_id",
          "type": "uint256"
        }
      ],
      "name": "getUserUpdates",
      "outputs": [
        {
          "components": [
            {
              "internalType": "uint256",
              "name": "timestamp",
              "type": "uint256"
            },
            {
              "internalType": "address",
              "name": "userAddress",
              "type": "address"
            },
            {
              "internalType": "string",
              "name": "data",
              "type": "string"
            }
          ],
          "internalType": "struct DAROSmartContract.Updates[]",
          "name": "",
          "type": "tuple[]"
        }
      ],
      "stateMutability": "view",
      "type": "function"
    },
    {
      "inputs": [
        {
          "internalType": "uint256",
          "name": "",
          "type": "uint256"
        }
      ],
      "name": "isOwner",
      "outputs": [
        {
          "internalType": "address",
          "name": "",
          "type": "address"
        }
      ],
      "stateMutability": "view",
      "type": "function"
    },
    {
      "inputs": [
        {
          "internalType": "address",
          "name": "",
          "type": "address"
        },
        {
          "internalType": "uint256",
          "name": "",
          "type": "uint256"
        }
      ],
      "name": "messages",
      "outputs": [
        {
          "internalType": "uint256",
          "name": "timestamp",
          "type": "uint256"
        },
        {
          "internalType": "address",
          "name": "userAddress",
          "type": "address"
        },
        {
          "internalType": "string",
          "name": "data",
          "type": "string"
        },
        {
          "internalType": "bool",
          "name": "Approved",
          "type": "bool"
        }
      ],
      "stateMutability": "view",
      "type": "function"
    },
    {
      "inputs": [],
      "name": "publicationCounter",
      "outputs": [
        {
          "internalType": "uint256",
          "name": "",
          "type": "uint256"
        }
      ],
      "stateMutability": "view",
      "type": "function"
    },
    {
      "inputs": [
        {
          "internalType": "uint256",
          "name": "",
          "type": "uint256"
        }
      ],
      "name": "publications",
      "outputs": [
        {
          "internalType": "uint256",
          "name": "id",
          "type": "uint256"
        },
        {
          "internalType": "address",
          "name": "researcher",
          "type": "address"
        },
        {
          "internalType": "string",
          "name": "title",
          "type": "string"
        },
        {
          "internalType": "string",
          "name": "description",
          "type": "string"
        },
        {
          "internalType": "uint256",
          "name": "timestamp",
          "type": "uint256"
        },
        {
          "internalType": "bool",
          "name": "reviewed",
          "type": "bool"
        },
        {
          "internalType": "bool",
          "name": "rewarded",
          "type": "bool"
        },
        {
          "internalType": "uint256",
          "name": "totalContributions",
          "type": "uint256"
        }
      ],
      "stateMutability": "view",
      "type": "function"
    },
    {
      "inputs": [
        {
          "internalType": "address",
          "name": "",
          "type": "address"
        },
        {
          "internalType": "uint256",
          "name": "",
          "type": "uint256"
        }
      ],
      "name": "publicationsByAddress",
      "outputs": [
        {
          "internalType": "uint256",
          "name": "id",
          "type": "uint256"
        },
        {
          "internalType": "address",
          "name": "researcher",
          "type": "address"
        },
        {
          "internalType": "string",
          "name": "title",
          "type": "string"
        },
        {
          "internalType": "string",
          "name": "description",
          "type": "string"
        },
        {
          "internalType": "uint256",
          "name": "timestamp",
          "type": "uint256"
        },
        {
          "internalType": "bool",
          "name": "reviewed",
          "type": "bool"
        },
        {
          "internalType": "bool",
          "name": "rewarded",
          "type": "bool"
        },
        {
          "internalType": "uint256",
          "name": "totalContributions",
          "type": "uint256"
        }
      ],
      "stateMutability": "view",
      "type": "function"
    },
    {
      "inputs": [
        {
          "internalType": "uint256",
          "name": "",
          "type": "uint256"
        },
        {
          "internalType": "address",
          "name": "",
          "type": "address"
        },
        {
          "internalType": "uint256",
          "name": "",
          "type": "uint256"
        }
      ],
      "name": "requestContribution",
      "outputs": [
        {
          "internalType": "uint256",
          "name": "timestamp",
          "type": "uint256"
        },
        {
          "internalType": "address",
          "name": "userAddress",
          "type": "address"
        },
        {
          "internalType": "string",
          "name": "data",
          "type": "string"
        },
        {
          "internalType": "bool",
          "name": "Approved",
          "type": "bool"
        }
      ],
      "stateMutability": "view",
      "type": "function"
    },
    {
      "inputs": [],
      "name": "reviewCounter",
      "outputs": [
        {
          "internalType": "uint256",
          "name": "",
          "type": "uint256"
        }
      ],
      "stateMutability": "view",
      "type": "function"
    },
    {
      "inputs": [
        {
          "internalType": "uint256",
          "name": "",
          "type": "uint256"
        }
      ],
      "name": "reviews",
      "outputs": [
        {
          "internalType": "address",
          "name": "reviewer",
          "type": "address"
        },
        {
          "internalType": "string",
          "name": "feedback",
          "type": "string"
        },
        {
          "internalType": "uint256",
          "name": "score",
          "type": "uint256"
        }
      ],
      "stateMutability": "view",
      "type": "function"
    },
    {
      "inputs": [],
      "name": "sourceAddress",
      "outputs": [
        {
          "internalType": "string",
          "name": "",
          "type": "string"
        }
      ],
      "stateMutability": "view",
      "type": "function"
    },
    {
      "inputs": [],
      "name": "sourceChain",
      "outputs": [
        {
          "internalType": "string",
          "name": "",
          "type": "string"
        }
      ],
      "stateMutability": "view",
      "type": "function"
    },
    {
      "inputs": [
        {
          "internalType": "uint256",
          "name": "_id",
          "type": "uint256"
        },
        {
          "internalType": "string",
          "name": "_fileHash",
          "type": "string"
        }
      ],
      "name": "updatePublications",
      "outputs": [],
      "stateMutability": "nonpayable",
      "type": "function"
    },
    {
      "inputs": [
        {
          "internalType": "uint256",
          "name": "",
          "type": "uint256"
        },
        {
          "internalType": "uint256",
          "name": "",
          "type": "uint256"
        }
      ],
      "name": "userUpdates",
      "outputs": [
        {
          "internalType": "uint256",
          "name": "timestamp",
          "type": "uint256"
        },
        {
          "internalType": "address",
          "name": "userAddress",
          "type": "address"
        },
        {
          "internalType": "string",
          "name": "data",
          "type": "string"
        }
      ],
      "stateMutability": "view",
      "type": "function"
    },
    {
      "inputs": [],
      "name": "value",
      "outputs": [
        {
          "internalType": "string",
          "name": "",
          "type": "string"
        }
      ],
      "stateMutability": "view",
      "type": "function"
    }
  ],
  "bytecode": "0x60c06040523480156200001157600080fd5b50604051620055593803806200555983398181016040528101906200003791906200017a565b81600073ffffffffffffffffffffffffffffffffffffffff168173ffffffffffffffffffffffffffffffffffffffff16036200009f576040517fe6c4247b00000000000000000000000000000000000000000000000000000000815260040160405180910390fd5b8073ffffffffffffffffffffffffffffffffffffffff1660808173ffffffffffffffffffffffffffffffffffffffff1681525050508073ffffffffffffffffffffffffffffffffffffffff1660a08173ffffffffffffffffffffffffffffffffffffffff16815250505050620001c1565b600080fd5b600073ffffffffffffffffffffffffffffffffffffffff82169050919050565b6000620001428262000115565b9050919050565b620001548162000135565b81146200016057600080fd5b50565b600081519050620001748162000149565b92915050565b6000806040838503121562000194576200019362000110565b5b6000620001a48582860162000163565b9250506020620001b78582860162000163565b9150509250929050565b60805160a05161535d620001fc600039600081816115f50152611a81015260008181610974015281816109b401526116f3015261535d6000f3fe6080604052600436106101e35760003560e01c806382e5df2211610102578063c45d9bea11610095578063e7315f9911610064578063e7315f9914610795578063e7c36023146107be578063e83ddcea146107fb578063f726f7151461083a576101e3565b8063c45d9bea146106c4578063ca1146e014610704578063de3a2b591461072d578063e168b3a81461076a576101e3565b8063b05c318b116100d1578063b05c318b146105ed578063b0fa844414610616578063b12ff06c14610641578063b516a73914610685576101e3565b806382e5df221461053357806394cdf85f1461055c578063990581b614610585578063a86835cc146105c2576101e3565b806339c7639c1161017a5780634916065811610149578063491606581461046357806353a44faf1461048c57806355448fe1146104cb5780636a22d8cc14610508576101e3565b806339c7639c146103a25780633d862f1f146103df5780633fa4f2451461041c57806348a0513214610447576101e3565b80631fd5bbab116101b65780631fd5bbab146102a75780632de4ea64146102eb5780633341f7bd1461032857806337950cfb14610365576101e3565b806307058413146101e8578063116191b6146102285780631a98b2e0146102535780631c6ffa461461027c575b600080fd5b3480156101f457600080fd5b5061020f600480360381019061020a91906135d3565b610863565b60405161021f94939291906136ef565b60405180910390f35b34801561023457600080fd5b5061023d610972565b60405161024a919061379a565b60405180910390f35b34801561025f57600080fd5b5061027a600480360381019061027591906138a6565b610996565b005b34801561028857600080fd5b50610291610ab2565b60405161029e91906139b6565b60405180910390f35b3480156102b357600080fd5b506102ce60048036038101906102c991906139d8565b610b40565b6040516102e2989796959493929190613a05565b60405180910390f35b3480156102f757600080fd5b50610312600480360381019061030d9190613a91565b610cd2565b60405161031f91906139b6565b60405180910390f35b34801561033457600080fd5b5061034f600480360381019061034a9190613ad1565b610d8b565b60405161035c9190613e84565b60405180910390f35b34801561037157600080fd5b5061038c600480360381019061038791906139d8565b6110de565b6040516103999190613f95565b60405180910390f35b3480156103ae57600080fd5b506103c960048036038101906103c491906139d8565b6113bf565b6040516103d69190613fb7565b60405180910390f35b3480156103eb57600080fd5b50610406600480360381019061040191906139d8565b6113f2565b60405161041391906140e4565b60405180910390f35b34801561042857600080fd5b50610431611556565b60405161043e91906139b6565b60405180910390f35b610461600480360381019061045c91906139d8565b6115e4565b005b34801561046f57600080fd5b5061048a60048036038101906104859190614106565b6116d5565b005b34801561049857600080fd5b506104b360048036038101906104ae9190613a91565b6117e5565b6040516104c2939291906141cf565b60405180910390f35b3480156104d757600080fd5b506104f260048036038101906104ed9190613ad1565b6118d4565b6040516104ff9190614332565b60405180910390f35b34801561051457600080fd5b5061051d611a7f565b60405161052a9190614375565b60405180910390f35b34801561053f57600080fd5b5061055a600480360381019061055591906144c0565b611aa3565b005b34801561056857600080fd5b50610583600480360381019061057e919061451c565b611cd1565b005b34801561059157600080fd5b506105ac60048036038101906105a791906139d8565b611f2f565b6040516105b9919061469d565b60405180910390f35b3480156105ce57600080fd5b506105d7612093565b6040516105e491906146bf565b60405180910390f35b3480156105f957600080fd5b50610614600480360381019061060f91906146da565b612099565b005b34801561062257600080fd5b5061062b612531565b60405161063891906139b6565b60405180910390f35b34801561064d57600080fd5b5061066860048036038101906106639190614781565b6125bf565b60405161067c989796959493929190613a05565b60405180910390f35b34801561069157600080fd5b506106ac60048036038101906106a79190613a91565b61276e565b6040516106bb939291906147c1565b60405180910390f35b3480156106d057600080fd5b506106eb60048036038101906106e69190614781565b61285d565b6040516106fb94939291906136ef565b60405180910390f35b34801561071057600080fd5b5061072b600480360381019061072691906147ff565b61295f565b005b34801561073957600080fd5b50610754600480360381019061074f91906139d8565b612c4b565b60405161076191906146bf565b60405180910390f35b34801561077657600080fd5b5061077f612d93565b60405161078c91906146bf565b60405180910390f35b3480156107a157600080fd5b506107bc60048036038101906107b791906144c0565b612d99565b005b3480156107ca57600080fd5b506107e560048036038101906107e091906147ff565b613006565b6040516107f2919061483f565b60405180910390f35b34801561080757600080fd5b50610822600480360381019061081d91906139d8565b613035565b604051610831939291906141cf565b60405180910390f35b34801561084657600080fd5b50610861600480360381019061085c91906139d8565b613107565b005b6004602052826000526040600020602052816000526040600020818154811061088b57600080fd5b906000526020600020906004020160009250925050508060000154908060010160009054906101000a900473ffffffffffffffffffffffffffffffffffffffff16908060020180546108dc90614889565b80601f016020809104026020016040519081016040528092919081815260200182805461090890614889565b80156109555780601f1061092a57610100808354040283529160200191610955565b820191906000526020600020905b81548152906001019060200180831161093857829003601f168201915b5050505050908060030160009054906101000a900460ff16905084565b7f000000000000000000000000000000000000000000000000000000000000000081565b600085856040516109a89291906148ea565b604051809103902090507f000000000000000000000000000000000000000000000000000000000000000073ffffffffffffffffffffffffffffffffffffffff16631876eed98c8c8c8c8c878b8b8b6040518a63ffffffff1660e01b8152600401610a1b9998979695949392919061493f565b6020604051808303816000875af1158015610a3a573d6000803e3d6000fd5b505050506040513d601f19601f82011682018060405250810190610a5e91906149e7565b610a94576040517f500c44b400000000000000000000000000000000000000000000000000000000815260040160405180910390fd5b610aa58a8a8a8a8a8a8a8a8a613375565b5050505050505050505050565b600c8054610abf90614889565b80601f0160208091040260200160405190810160405280929190818152602001828054610aeb90614889565b8015610b385780601f10610b0d57610100808354040283529160200191610b38565b820191906000526020600020905b815481529060010190602001808311610b1b57829003601f168201915b505050505081565b60006020528060005260406000206000915090508060000154908060010160009054906101000a900473ffffffffffffffffffffffffffffffffffffffff1690806002018054610b8f90614889565b80601f0160208091040260200160405190810160405280929190818152602001828054610bbb90614889565b8015610c085780601f10610bdd57610100808354040283529160200191610c08565b820191906000526020600020905b815481529060010190602001808311610beb57829003601f168201915b505050505090806003018054610c1d90614889565b80601f0160208091040260200160405190810160405280929190818152602001828054610c4990614889565b8015610c965780601f10610c6b57610100808354040283529160200191610c96565b820191906000526020600020905b815481529060010190602001808311610c7957829003601f168201915b5050505050908060040154908060050160009054906101000a900460ff16908060050160019054906101000a900460ff16908060080154905088565b60096020528160005260406000208181548110610cee57600080fd5b90600052602060002001600091509150508054610d0a90614889565b80601f0160208091040260200160405190810160405280929190818152602001828054610d3690614889565b8015610d835780601f10610d5857610100808354040283529160200191610d83565b820191906000526020600020905b815481529060010190602001808311610d6657829003601f168201915b505050505081565b6060600760008373ffffffffffffffffffffffffffffffffffffffff1673ffffffffffffffffffffffffffffffffffffffff168152602001908152602001600020805480602002602001604051908101604052809291908181526020016000905b828210156110d3578382906000526020600020906009020160405180610140016040529081600082015481526020016001820160009054906101000a900473ffffffffffffffffffffffffffffffffffffffff1673ffffffffffffffffffffffffffffffffffffffff1673ffffffffffffffffffffffffffffffffffffffff168152602001600282018054610e8090614889565b80601f0160208091040260200160405190810160405280929190818152602001828054610eac90614889565b8015610ef95780601f10610ece57610100808354040283529160200191610ef9565b820191906000526020600020905b815481529060010190602001808311610edc57829003601f168201915b50505050508152602001600382018054610f1290614889565b80601f0160208091040260200160405190810160405280929190818152602001828054610f3e90614889565b8015610f8b5780601f10610f6057610100808354040283529160200191610f8b565b820191906000526020600020905b815481529060010190602001808311610f6e57829003601f168201915b50505050508152602001600482015481526020016005820160009054906101000a900460ff161515151581526020016005820160019054906101000a900460ff161515151581526020016006820180548060200260200160405190810160405280929190818152602001828054801561102357602002820191906000526020600020905b81548152602001906001019080831161100f575b50505050508152602001600782018054806020026020016040519081016040528092919081815260200182805480156110b157602002820191906000526020600020905b8160009054906101000a900473ffffffffffffffffffffffffffffffffffffffff1673ffffffffffffffffffffffffffffffffffffffff1681526020019060010190808311611067575b5050505050815260200160088201548152505081526020019060010190610dec565b505050509050919050565b6110e66133ca565b60008083815260200190815260200160002060405180610140016040529081600082015481526020016001820160009054906101000a900473ffffffffffffffffffffffffffffffffffffffff1673ffffffffffffffffffffffffffffffffffffffff1673ffffffffffffffffffffffffffffffffffffffff16815260200160028201805461117490614889565b80601f01602080910402602001604051908101604052809291908181526020018280546111a090614889565b80156111ed5780601f106111c2576101008083540402835291602001916111ed565b820191906000526020600020905b8154815290600101906020018083116111d057829003601f168201915b5050505050815260200160038201805461120690614889565b80601f016020809104026020016040519081016040528092919081815260200182805461123290614889565b801561127f5780601f106112545761010080835404028352916020019161127f565b820191906000526020600020905b81548152906001019060200180831161126257829003601f168201915b50505050508152602001600482015481526020016005820160009054906101000a900460ff161515151581526020016005820160019054906101000a900460ff161515151581526020016006820180548060200260200160405190810160405280929190818152602001828054801561131757602002820191906000526020600020905b815481526020019060010190808311611303575b50505050508152602001600782018054806020026020016040519081016040528092919081815260200182805480156113a557602002820191906000526020600020905b8160009054906101000a900473ffffffffffffffffffffffffffffffffffffffff1673ffffffffffffffffffffffffffffffffffffffff168152602001906001019080831161135b575b505050505081526020016008820154815250509050919050565b60086020528060005260406000206000915054906101000a900473ffffffffffffffffffffffffffffffffffffffff1681565b606060036000838152602001908152602001600020805480602002602001604051908101604052809291908181526020016000905b8282101561154b5783829060005260206000209060030201604051806060016040529081600082015481526020016001820160009054906101000a900473ffffffffffffffffffffffffffffffffffffffff1673ffffffffffffffffffffffffffffffffffffffff1673ffffffffffffffffffffffffffffffffffffffff1681526020016002820180546114ba90614889565b80601f01602080910402602001604051908101604052809291908181526020018280546114e690614889565b80156115335780601f1061150857610100808354040283529160200191611533565b820191906000526020600020905b81548152906001019060200180831161151657829003601f168201915b50505050508152505081526020019060010190611427565b505050509050919050565b600e805461156390614889565b80601f016020809104026020016040519081016040528092919081815260200182805461158f90614889565b80156115dc5780601f106115b1576101008083540402835291602001916115dc565b820191906000526020600020905b8154815290600101906020018083116115bf57829003601f168201915b505050505081565b66038d7ea4c68000341115611694577f000000000000000000000000000000000000000000000000000000000000000073ffffffffffffffffffffffffffffffffffffffff16630c93e3bb66038d7ea4c6800030600c600d600036336040518863ffffffff1660e01b815260040161166196959493929190614aeb565b6000604051808303818588803b15801561167a57600080fd5b505af115801561168e573d6000803e3d6000fd5b50505050505b66038d7ea4c68000346116a79190614b84565b60008083815260200190815260200160002060080160008282546116cb9190614bb8565b9250508190555050565b600082826040516116e79291906148ea565b604051809103902090507f000000000000000000000000000000000000000000000000000000000000000073ffffffffffffffffffffffffffffffffffffffff16635f6970c38989898989876040518763ffffffff1660e01b815260040161175496959493929190614bec565b6020604051808303816000875af1158015611773573d6000803e3d6000fd5b505050506040513d601f19601f8201168201806040525081019061179791906149e7565b6117cd576040517f500c44b400000000000000000000000000000000000000000000000000000000815260040160405180910390fd5b6117db878787878787613380565b5050505050505050565b6002602052816000526040600020818154811061180157600080fd5b9060005260206000209060030201600091509150508060000160009054906101000a900473ffffffffffffffffffffffffffffffffffffffff169080600101805461184b90614889565b80601f016020809104026020016040519081016040528092919081815260200182805461187790614889565b80156118c45780601f10611899576101008083540402835291602001916118c4565b820191906000526020600020905b8154815290600101906020018083116118a757829003601f168201915b5050505050908060020154905083565b6060600b60008373ffffffffffffffffffffffffffffffffffffffff1673ffffffffffffffffffffffffffffffffffffffff168152602001908152602001600020805480602002602001604051908101604052809291908181526020016000905b82821015611a745783829060005260206000209060040201604051806080016040529081600082015481526020016001820160009054906101000a900473ffffffffffffffffffffffffffffffffffffffff1673ffffffffffffffffffffffffffffffffffffffff1673ffffffffffffffffffffffffffffffffffffffff1681526020016002820180546119c890614889565b80601f01602080910402602001604051908101604052809291908181526020018280546119f490614889565b8015611a415780601f10611a1657610100808354040283529160200191611a41565b820191906000526020600020905b815481529060010190602001808311611a2457829003601f168201915b505050505081526020016003820160009054906101000a900460ff16151515158152505081526020019060010190611935565b505050509050919050565b7f000000000000000000000000000000000000000000000000000000000000000081565b816008600082815260200190815260200160002060009054906101000a900473ffffffffffffffffffffffffffffffffffffffff1673ffffffffffffffffffffffffffffffffffffffff163373ffffffffffffffffffffffffffffffffffffffff161480611b6b5750600a600082815260200190815260200160002060003373ffffffffffffffffffffffffffffffffffffffff1673ffffffffffffffffffffffffffffffffffffffff16815260200190815260200160002060009054906101000a900460ff165b611baa576040517f08c379a0000000000000000000000000000000000000000000000000000000008152600401611ba190614cb5565b60405180910390fd5b6009600084815260200190815260200160002082908060018154018082558091505060019003906000526020600020016000909190919091509081611bef9190614e62565b50600060405180606001604052804281526020013373ffffffffffffffffffffffffffffffffffffffff168152602001848152509050600360008581526020019081526020016000208190806001815401808255809150506001900390600052602060002090600302016000909190919091506000820151816000015560208201518160010160006101000a81548173ffffffffffffffffffffffffffffffffffffffff021916908373ffffffffffffffffffffffffffffffffffffffff1602179055506040820151816002019081611cc89190614e62565b50505050505050565b6000151560008085815260200190815260200160002060050160009054906101000a900460ff16151514611d3a576040517f08c379a0000000000000000000000000000000000000000000000000000000008152600401611d3190614fa6565b60405180910390fd5b600060405180606001604052803373ffffffffffffffffffffffffffffffffffffffff16815260200184815260200183815250905060006001600654611d809190614bb8565b905060066000815480929190611d9590614fc6565b91905055506002600086815260200190815260200160002082908060018154018082558091505060019003906000526020600020906003020160009091909190915060008201518160000160006101000a81548173ffffffffffffffffffffffffffffffffffffffff021916908373ffffffffffffffffffffffffffffffffffffffff1602179055506020820151816001019081611e339190614e62565b50604082015181600201555050600080868152602001908152602001600020600601819080600181540180825580915050600190039060005260206000200160009091909190915055816001600083815260200190815260200160002060008201518160000160006101000a81548173ffffffffffffffffffffffffffffffffffffffff021916908373ffffffffffffffffffffffffffffffffffffffff1602179055506020820151816001019081611eec9190614e62565b5060408201518160020155905050600160008087815260200190815260200160002060050160006101000a81548160ff0219169083151502179055505050505050565b606060026000838152602001908152602001600020805480602002602001604051908101604052809291908181526020016000905b8282101561208857838290600052602060002090600302016040518060600160405290816000820160009054906101000a900473ffffffffffffffffffffffffffffffffffffffff1673ffffffffffffffffffffffffffffffffffffffff1673ffffffffffffffffffffffffffffffffffffffff168152602001600182018054611fed90614889565b80601f016020809104026020016040519081016040528092919081815260200182805461201990614889565b80156120665780601f1061203b57610100808354040283529160200191612066565b820191906000526020600020905b81548152906001019060200180831161204957829003601f168201915b5050505050815260200160028201548152505081526020019060010190611f64565b505050509050919050565b60055481565b600560008154809291906120ac90614fc6565b9190505550600060405180610140016040528060055481526020013373ffffffffffffffffffffffffffffffffffffffff168152602001858152602001848152602001428152602001600015158152602001600015158152602001600067ffffffffffffffff81111561212257612121614395565b5b6040519080825280602002602001820160405280156121505781602001602082028036833780820191505090505b508152602001600067ffffffffffffffff81111561217157612170614395565b5b60405190808252806020026020018201604052801561219f5781602001602082028036833780820191505090505b508152602001600081525090508060008060055481526020019081526020016000206000820151816000015560208201518160010160006101000a81548173ffffffffffffffffffffffffffffffffffffffff021916908373ffffffffffffffffffffffffffffffffffffffff16021790555060408201518160020190816122279190614e62565b50606082015181600301908161223d9190614e62565b506080820151816004015560a08201518160050160006101000a81548160ff02191690831515021790555060c08201518160050160016101000a81548160ff02191690831515021790555060e08201518160060190805190602001906122a4929190613437565b506101008201518160070190805190602001906122c2929190613484565b506101208201518160080155905050600760003373ffffffffffffffffffffffffffffffffffffffff1673ffffffffffffffffffffffffffffffffffffffff1681526020019081526020016000208190806001815401808255809150506001900390600052602060002090600902016000909190919091506000820151816000015560208201518160010160006101000a81548173ffffffffffffffffffffffffffffffffffffffff021916908373ffffffffffffffffffffffffffffffffffffffff16021790555060408201518160020190816123a09190614e62565b5060608201518160030190816123b69190614e62565b506080820151816004015560a08201518160050160006101000a81548160ff02191690831515021790555060c08201518160050160016101000a81548160ff02191690831515021790555060e082015181600601908051906020019061241d929190613437565b5061010082015181600701908051906020019061243b929190613484565b5061012082015181600801555050600960006005548152602001908152602001600020829080600181540180825580915050600190039060005260206000200160009091909190915090816124909190614e62565b503360086000600554815260200190815260200160002060006101000a81548173ffffffffffffffffffffffffffffffffffffffff021916908373ffffffffffffffffffffffffffffffffffffffff1602179055503373ffffffffffffffffffffffffffffffffffffffff166005547fc531c31b7b8399a6fb656c936b490c23f870bae5262e87b8d24b0770572d409760405160405180910390a350505050565b600d805461253e90614889565b80601f016020809104026020016040519081016040528092919081815260200182805461256a90614889565b80156125b75780601f1061258c576101008083540402835291602001916125b7565b820191906000526020600020905b81548152906001019060200180831161259a57829003601f168201915b505050505081565b600760205281600052604060002081815481106125db57600080fd5b9060005260206000209060090201600091509150508060000154908060010160009054906101000a900473ffffffffffffffffffffffffffffffffffffffff169080600201805461262b90614889565b80601f016020809104026020016040519081016040528092919081815260200182805461265790614889565b80156126a45780601f10612679576101008083540402835291602001916126a4565b820191906000526020600020905b81548152906001019060200180831161268757829003601f168201915b5050505050908060030180546126b990614889565b80601f01602080910402602001604051908101604052809291908181526020018280546126e590614889565b80156127325780601f1061270757610100808354040283529160200191612732565b820191906000526020600020905b81548152906001019060200180831161271557829003601f168201915b5050505050908060040154908060050160009054906101000a900460ff16908060050160019054906101000a900460ff16908060080154905088565b6003602052816000526040600020818154811061278a57600080fd5b9060005260206000209060030201600091509150508060000154908060010160009054906101000a900473ffffffffffffffffffffffffffffffffffffffff16908060020180546127da90614889565b80601f016020809104026020016040519081016040528092919081815260200182805461280690614889565b80156128535780601f1061282857610100808354040283529160200191612853565b820191906000526020600020905b81548152906001019060200180831161283657829003601f168201915b5050505050905083565b600b602052816000526040600020818154811061287957600080fd5b9060005260206000209060040201600091509150508060000154908060010160009054906101000a900473ffffffffffffffffffffffffffffffffffffffff16908060020180546128c990614889565b80601f01602080910402602001604051908101604052809291908181526020018280546128f590614889565b80156129425780601f1061291757610100808354040283529160200191612942565b820191906000526020600020905b81548152906001019060200180831161292557829003601f168201915b5050505050908060030160009054906101000a900460ff16905084565b816008600082815260200190815260200160002060009054906101000a900473ffffffffffffffffffffffffffffffffffffffff1673ffffffffffffffffffffffffffffffffffffffff163373ffffffffffffffffffffffffffffffffffffffff1614612a01576040517f08c379a00000000000000000000000000000000000000000000000000000000081526004016129f890615080565b60405180910390fd5b6001600a600085815260200190815260200160002060008473ffffffffffffffffffffffffffffffffffffffff1673ffffffffffffffffffffffffffffffffffffffff16815260200190815260200160002060006101000a81548160ff021916908315150217905550600080848152602001908152602001600020600701829080600181540180825580915050600190039060005260206000200160009091909190916101000a81548173ffffffffffffffffffffffffffffffffffffffff021916908373ffffffffffffffffffffffffffffffffffffffff160217905550600060405180608001604052804281526020013373ffffffffffffffffffffffffffffffffffffffff1681526020016040518060400160405280601681526020017f596f752063616e20636f6e74726962757465206e6f77000000000000000000008152508152602001600115158152509050600b60008473ffffffffffffffffffffffffffffffffffffffff1673ffffffffffffffffffffffffffffffffffffffff1681526020019081526020016000208190806001815401808255809150506001900390600052602060002090600402016000909190919091506000820151816000015560208201518160010160006101000a81548173ffffffffffffffffffffffffffffffffffffffff021916908373ffffffffffffffffffffffffffffffffffffffff1602179055506040820151816002019081612c229190614e62565b5060608201518160030160006101000a81548160ff021916908315150217905550505050505050565b60006001151560008084815260200190815260200160002060050160009054906101000a900460ff16151514612cb6576040517f08c379a0000000000000000000000000000000000000000000000000000000008152600401612cad90615112565b60405180910390fd5b6000806000848152602001908152602001600020600601805480602002602001604051908101604052809291908181526020018280548015612d1757602002820191906000526020600020905b815481526020019060010190808311612d03575b505050505090506000805b8251811015612d7c5760016000848381518110612d4257612d41615132565b5b602002602001015181526020019081526020016000206002015482612d679190614bb8565b91508080612d7490614fc6565b915050612d22565b50815181612d8a9190615190565b92505050919050565b60065481565b600060405180608001604052804281526020013373ffffffffffffffffffffffffffffffffffffffff1681526020018381526020016000151581525090506004600084815260200190815260200160002060003373ffffffffffffffffffffffffffffffffffffffff1673ffffffffffffffffffffffffffffffffffffffff1681526020019081526020016000208190806001815401808255809150506001900390600052602060002090600402016000909190919091506000820151816000015560208201518160010160006101000a81548173ffffffffffffffffffffffffffffffffffffffff021916908373ffffffffffffffffffffffffffffffffffffffff1602179055506040820151816002019081612eb79190614e62565b5060608201518160030160006101000a81548160ff0219169083151502179055505050600b600080600086815260200190815260200160002060010160009054906101000a900473ffffffffffffffffffffffffffffffffffffffff1673ffffffffffffffffffffffffffffffffffffffff1673ffffffffffffffffffffffffffffffffffffffff1681526020019081526020016000208190806001815401808255809150506001900390600052602060002090600402016000909190919091506000820151816000015560208201518160010160006101000a81548173ffffffffffffffffffffffffffffffffffffffff021916908373ffffffffffffffffffffffffffffffffffffffff1602179055506040820151816002019081612fde9190614e62565b5060608201518160030160006101000a81548160ff0219169083151502179055505050505050565b600a6020528160005260406000206020528060005260406000206000915091509054906101000a900460ff1681565b60016020528060005260406000206000915090508060000160009054906101000a900473ffffffffffffffffffffffffffffffffffffffff169080600101805461307e90614889565b80601f01602080910402602001604051908101604052809291908181526020018280546130aa90614889565b80156130f75780601f106130cc576101008083540402835291602001916130f7565b820191906000526020600020905b8154815290600101906020018083116130da57829003601f168201915b5050505050908060020154905083565b806008600082815260200190815260200160002060009054906101000a900473ffffffffffffffffffffffffffffffffffffffff1673ffffffffffffffffffffffffffffffffffffffff163373ffffffffffffffffffffffffffffffffffffffff16146131a9576040517f08c379a00000000000000000000000000000000000000000000000000000000081526004016131a090615080565b60405180910390fd5b6000806000848152602001908152602001600020600801549050600060646046836131d491906151c1565b6131de9190615190565b9050600081836131ee9190614b84565b905060008086815260200190815260200160002060010160009054906101000a900473ffffffffffffffffffffffffffffffffffffffff1673ffffffffffffffffffffffffffffffffffffffff166108fc839081150290604051600060405180830381858888f1935050505015801561326b573d6000803e3d6000fd5b5060005b6000808781526020019081526020016000206007018054905081101561336957600080600088815260200190815260200160002060070182815481106132b8576132b7615132565b5b9060005260206000200160009054906101000a900473ffffffffffffffffffffffffffffffffffffffff1690506000806000898152602001908152602001600020600701805490508461330b9190615190565b90508173ffffffffffffffffffffffffffffffffffffffff166108fc829081150290604051600060405180830381858888f19350505050158015613353573d6000803e3d6000fd5b505050808061336190614fc6565b91505061326f565b50600092505050505050565b505050505050505050565b818181019061338f9190615203565b600e908161339d9190614e62565b508585600c91826133af929190615257565b508383600d91826133c1929190615257565b50505050505050565b60405180610140016040528060008152602001600073ffffffffffffffffffffffffffffffffffffffff1681526020016060815260200160608152602001600081526020016000151581526020016000151581526020016060815260200160608152602001600081525090565b828054828255906000526020600020908101928215613473579160200282015b82811115613472578251825591602001919060010190613457565b5b509050613480919061350e565b5090565b8280548282559060005260206000209081019282156134fd579160200282015b828111156134fc5782518260006101000a81548173ffffffffffffffffffffffffffffffffffffffff021916908373ffffffffffffffffffffffffffffffffffffffff160217905550916020019190600101906134a4565b5b50905061350a919061350e565b5090565b5b8082111561352757600081600090555060010161350f565b5090565b6000604051905090565b600080fd5b600080fd5b6000819050919050565b6135528161353f565b811461355d57600080fd5b50565b60008135905061356f81613549565b92915050565b600073ffffffffffffffffffffffffffffffffffffffff82169050919050565b60006135a082613575565b9050919050565b6135b081613595565b81146135bb57600080fd5b50565b6000813590506135cd816135a7565b92915050565b6000806000606084860312156135ec576135eb613535565b5b60006135fa86828701613560565b935050602061360b868287016135be565b925050604061361c86828701613560565b9150509250925092565b61362f8161353f565b82525050565b61363e81613595565b82525050565b600081519050919050565b600082825260208201905092915050565b60005b8381101561367e578082015181840152602081019050613663565b60008484015250505050565b6000601f19601f8301169050919050565b60006136a682613644565b6136b0818561364f565b93506136c0818560208601613660565b6136c98161368a565b840191505092915050565b60008115159050919050565b6136e9816136d4565b82525050565b60006080820190506137046000830187613626565b6137116020830186613635565b8181036040830152613723818561369b565b905061373260608301846136e0565b95945050505050565b6000819050919050565b600061376061375b61375684613575565b61373b565b613575565b9050919050565b600061377282613745565b9050919050565b600061378482613767565b9050919050565b61379481613779565b82525050565b60006020820190506137af600083018461378b565b92915050565b6000819050919050565b6137c8816137b5565b81146137d357600080fd5b50565b6000813590506137e5816137bf565b92915050565b600080fd5b600080fd5b600080fd5b60008083601f8401126138105761380f6137eb565b5b8235905067ffffffffffffffff81111561382d5761382c6137f0565b5b602083019150836001820283011115613849576138486137f5565b5b9250929050565b60008083601f840112613866576138656137eb565b5b8235905067ffffffffffffffff811115613883576138826137f0565b5b60208301915083600182028301111561389f5761389e6137f5565b5b9250929050565b60008060008060008060008060008060c08b8d0312156138c9576138c8613535565b5b60006138d78d828e016137d6565b9a505060208b013567ffffffffffffffff8111156138f8576138f761353a565b5b6139048d828e016137fa565b995099505060408b013567ffffffffffffffff8111156139275761392661353a565b5b6139338d828e016137fa565b975097505060608b013567ffffffffffffffff8111156139565761395561353a565b5b6139628d828e01613850565b955095505060808b013567ffffffffffffffff8111156139855761398461353a565b5b6139918d828e016137fa565b935093505060a06139a48d828e01613560565b9150509295989b9194979a5092959850565b600060208201905081810360008301526139d0818461369b565b905092915050565b6000602082840312156139ee576139ed613535565b5b60006139fc84828501613560565b91505092915050565b600061010082019050613a1b600083018b613626565b613a28602083018a613635565b8181036040830152613a3a818961369b565b90508181036060830152613a4e818861369b565b9050613a5d6080830187613626565b613a6a60a08301866136e0565b613a7760c08301856136e0565b613a8460e0830184613626565b9998505050505050505050565b60008060408385031215613aa857613aa7613535565b5b6000613ab685828601613560565b9250506020613ac785828601613560565b9150509250929050565b600060208284031215613ae757613ae6613535565b5b6000613af5848285016135be565b91505092915050565b600081519050919050565b600082825260208201905092915050565b6000819050602082019050919050565b613b338161353f565b82525050565b613b4281613595565b82525050565b600082825260208201905092915050565b6000613b6482613644565b613b6e8185613b48565b9350613b7e818560208601613660565b613b878161368a565b840191505092915050565b613b9b816136d4565b82525050565b600081519050919050565b600082825260208201905092915050565b6000819050602082019050919050565b6000613bd98383613b2a565b60208301905092915050565b6000602082019050919050565b6000613bfd82613ba1565b613c078185613bac565b9350613c1283613bbd565b8060005b83811015613c43578151613c2a8882613bcd565b9750613c3583613be5565b925050600181019050613c16565b5085935050505092915050565b600081519050919050565b600082825260208201905092915050565b6000819050602082019050919050565b6000613c888383613b39565b60208301905092915050565b6000602082019050919050565b6000613cac82613c50565b613cb68185613c5b565b9350613cc183613c6c565b8060005b83811015613cf2578151613cd98882613c7c565b9750613ce483613c94565b925050600181019050613cc5565b5085935050505092915050565b600061014083016000830151613d186000860182613b2a565b506020830151613d2b6020860182613b39565b5060408301518482036040860152613d438282613b59565b91505060608301518482036060860152613d5d8282613b59565b9150506080830151613d726080860182613b2a565b5060a0830151613d8560a0860182613b92565b5060c0830151613d9860c0860182613b92565b5060e083015184820360e0860152613db08282613bf2565b915050610100830151848203610100860152613dcc8282613ca1565b915050610120830151613de3610120860182613b2a565b508091505092915050565b6000613dfa8383613cff565b905092915050565b6000602082019050919050565b6000613e1a82613afe565b613e248185613b09565b935083602082028501613e3685613b1a565b8060005b85811015613e725784840389528151613e538582613dee565b9450613e5e83613e02565b925060208a01995050600181019050613e3a565b50829750879550505050505092915050565b60006020820190508181036000830152613e9e8184613e0f565b905092915050565b600061014083016000830151613ebf6000860182613b2a565b506020830151613ed26020860182613b39565b5060408301518482036040860152613eea8282613b59565b91505060608301518482036060860152613f048282613b59565b9150506080830151613f196080860182613b2a565b5060a0830151613f2c60a0860182613b92565b5060c0830151613f3f60c0860182613b92565b5060e083015184820360e0860152613f578282613bf2565b915050610100830151848203610100860152613f738282613ca1565b915050610120830151613f8a610120860182613b2a565b508091505092915050565b60006020820190508181036000830152613faf8184613ea6565b905092915050565b6000602082019050613fcc6000830184613635565b92915050565b600081519050919050565b600082825260208201905092915050565b6000819050602082019050919050565b60006060830160008301516140166000860182613b2a565b5060208301516140296020860182613b39565b50604083015184820360408601526140418282613b59565b9150508091505092915050565b600061405a8383613ffe565b905092915050565b6000602082019050919050565b600061407a82613fd2565b6140848185613fdd565b93508360208202850161409685613fee565b8060005b858110156140d257848403895281516140b3858261404e565b94506140be83614062565b925060208a0199505060018101905061409a565b50829750879550505050505092915050565b600060208201905081810360008301526140fe818461406f565b905092915050565b60008060008060008060006080888a03121561412557614124613535565b5b60006141338a828b016137d6565b975050602088013567ffffffffffffffff8111156141545761415361353a565b5b6141608a828b016137fa565b9650965050604088013567ffffffffffffffff8111156141835761418261353a565b5b61418f8a828b016137fa565b9450945050606088013567ffffffffffffffff8111156141b2576141b161353a565b5b6141be8a828b01613850565b925092505092959891949750929550565b60006060820190506141e46000830186613635565b81810360208301526141f6818561369b565b90506142056040830184613626565b949350505050565b600081519050919050565b600082825260208201905092915050565b6000819050602082019050919050565b60006080830160008301516142516000860182613b2a565b5060208301516142646020860182613b39565b506040830151848203604086015261427c8282613b59565b91505060608301516142916060860182613b92565b508091505092915050565b60006142a88383614239565b905092915050565b6000602082019050919050565b60006142c88261420d565b6142d28185614218565b9350836020820285016142e485614229565b8060005b858110156143205784840389528151614301858261429c565b945061430c836142b0565b925060208a019950506001810190506142e8565b50829750879550505050505092915050565b6000602082019050818103600083015261434c81846142bd565b905092915050565b600061435f82613767565b9050919050565b61436f81614354565b82525050565b600060208201905061438a6000830184614366565b92915050565b600080fd5b7f4e487b7100000000000000000000000000000000000000000000000000000000600052604160045260246000fd5b6143cd8261368a565b810181811067ffffffffffffffff821117156143ec576143eb614395565b5b80604052505050565b60006143ff61352b565b905061440b82826143c4565b919050565b600067ffffffffffffffff82111561442b5761442a614395565b5b6144348261368a565b9050602081019050919050565b82818337600083830152505050565b600061446361445e84614410565b6143f5565b90508281526020810184848401111561447f5761447e614390565b5b61448a848285614441565b509392505050565b600082601f8301126144a7576144a66137eb565b5b81356144b7848260208601614450565b91505092915050565b600080604083850312156144d7576144d6613535565b5b60006144e585828601613560565b925050602083013567ffffffffffffffff8111156145065761450561353a565b5b61451285828601614492565b9150509250929050565b60008060006060848603121561453557614534613535565b5b600061454386828701613560565b935050602084013567ffffffffffffffff8111156145645761456361353a565b5b61457086828701614492565b925050604061458186828701613560565b9150509250925092565b600081519050919050565b600082825260208201905092915050565b6000819050602082019050919050565b60006060830160008301516145cf6000860182613b39565b50602083015184820360208601526145e78282613b59565b91505060408301516145fc6040860182613b2a565b508091505092915050565b600061461383836145b7565b905092915050565b6000602082019050919050565b60006146338261458b565b61463d8185614596565b93508360208202850161464f856145a7565b8060005b8581101561468b578484038952815161466c8582614607565b94506146778361461b565b925060208a01995050600181019050614653565b50829750879550505050505092915050565b600060208201905081810360008301526146b78184614628565b905092915050565b60006020820190506146d46000830184613626565b92915050565b6000806000606084860312156146f3576146f2613535565b5b600084013567ffffffffffffffff8111156147115761471061353a565b5b61471d86828701614492565b935050602084013567ffffffffffffffff81111561473e5761473d61353a565b5b61474a86828701614492565b925050604084013567ffffffffffffffff81111561476b5761476a61353a565b5b61477786828701614492565b9150509250925092565b6000806040838503121561479857614797613535565b5b60006147a6858286016135be565b92505060206147b785828601613560565b9150509250929050565b60006060820190506147d66000830186613626565b6147e36020830185613635565b81810360408301526147f5818461369b565b9050949350505050565b6000806040838503121561481657614815613535565b5b600061482485828601613560565b9250506020614835858286016135be565b9150509250929050565b600060208201905061485460008301846136e0565b92915050565b7f4e487b7100000000000000000000000000000000000000000000000000000000600052602260045260246000fd5b600060028204905060018216806148a157607f821691505b6020821081036148b4576148b361485a565b5b50919050565b600081905092915050565b60006148d183856148ba565b93506148de838584614441565b82840190509392505050565b60006148f78284866148c5565b91508190509392505050565b61490c816137b5565b82525050565b600061491e838561364f565b935061492b838584614441565b6149348361368a565b840190509392505050565b600060c082019050614954600083018c614903565b8181036020830152614967818a8c614912565b9050818103604083015261497c81888a614912565b905061498b6060830187614903565b818103608083015261499e818587614912565b90506149ad60a0830184613626565b9a9950505050505050505050565b6149c4816136d4565b81146149cf57600080fd5b50565b6000815190506149e1816149bb565b92915050565b6000602082840312156149fd576149fc613535565b5b6000614a0b848285016149d2565b91505092915050565b60008190508160005260206000209050919050565b60008154614a3681614889565b614a40818661364f565b94506001821660008114614a5b5760018114614a7157614aa4565b60ff198316865281151560200286019350614aa4565b614a7a85614a14565b60005b83811015614a9c57815481890152600182019150602081019050614a7d565b808801955050505b50505092915050565b600082825260208201905092915050565b6000614aca8385614aad565b9350614ad7838584614441565b614ae08361368a565b840190509392505050565b600060a082019050614b006000830189613635565b8181036020830152614b128188614a29565b90508181036040830152614b268187614a29565b90508181036060830152614b3b818587614abe565b9050614b4a6080830184613635565b979650505050505050565b7f4e487b7100000000000000000000000000000000000000000000000000000000600052601160045260246000fd5b6000614b8f8261353f565b9150614b9a8361353f565b9250828203905081811115614bb257614bb1614b55565b5b92915050565b6000614bc38261353f565b9150614bce8361353f565b9250828201905080821115614be657614be5614b55565b5b92915050565b6000608082019050614c016000830189614903565b8181036020830152614c14818789614912565b90508181036040830152614c29818587614912565b9050614c386060830184614903565b979650505050505050565b7f4f6e6c7920746865206f776e6572206f7220636f6e7472696275746f7273206360008201527f616e20706572666f726d207468697320616374696f6e00000000000000000000602082015250565b6000614c9f60368361364f565b9150614caa82614c43565b604082019050919050565b60006020820190508181036000830152614cce81614c92565b9050919050565b60006020601f8301049050919050565b600082821b905092915050565b600060088302614d227fffffffffffffffffffffffffffffffffffffffffffffffffffffffffffffffff82614ce5565b614d2c8683614ce5565b95508019841693508086168417925050509392505050565b6000614d5f614d5a614d558461353f565b61373b565b61353f565b9050919050565b6000819050919050565b614d7983614d44565b614d8d614d8582614d66565b848454614cf2565b825550505050565b600090565b614da2614d95565b614dad818484614d70565b505050565b5b81811015614dd157614dc6600082614d9a565b600181019050614db3565b5050565b601f821115614e1657614de781614a14565b614df084614cd5565b81016020851015614dff578190505b614e13614e0b85614cd5565b830182614db2565b50505b505050565b600082821c905092915050565b6000614e3960001984600802614e1b565b1980831691505092915050565b6000614e528383614e28565b9150826002028217905092915050565b614e6b82613644565b67ffffffffffffffff811115614e8457614e83614395565b5b614e8e8254614889565b614e99828285614dd5565b600060209050601f831160018114614ecc5760008415614eba578287015190505b614ec48582614e46565b865550614f2c565b601f198416614eda86614a14565b60005b82811015614f0257848901518255600182019150602085019450602081019050614edd565b86831015614f1f5784890151614f1b601f891682614e28565b8355505b6001600288020188555050505b505050505050565b7f5075626c69636174696f6e2068617320616c7265616479206265656e2072657660008201527f6965776564000000000000000000000000000000000000000000000000000000602082015250565b6000614f9060258361364f565b9150614f9b82614f34565b604082019050919050565b60006020820190508181036000830152614fbf81614f83565b9050919050565b6000614fd18261353f565b91507fffffffffffffffffffffffffffffffffffffffffffffffffffffffffffffffff820361500357615002614b55565b5b600182019050919050565b7f4f6e6c7920746865206f776e65722063616e20706572666f726d20746869732060008201527f616374696f6e0000000000000000000000000000000000000000000000000000602082015250565b600061506a60268361364f565b91506150758261500e565b604082019050919050565b600060208201905081810360008301526150998161505d565b9050919050565b7f5075626c69636174696f6e20686173206e6f74206265656e207265766965776560008201527f6420796574000000000000000000000000000000000000000000000000000000602082015250565b60006150fc60258361364f565b9150615107826150a0565b604082019050919050565b6000602082019050818103600083015261512b816150ef565b9050919050565b7f4e487b7100000000000000000000000000000000000000000000000000000000600052603260045260246000fd5b7f4e487b7100000000000000000000000000000000000000000000000000000000600052601260045260246000fd5b600061519b8261353f565b91506151a68361353f565b9250826151b6576151b5615161565b5b828204905092915050565b60006151cc8261353f565b91506151d78361353f565b92508282026151e58161353f565b915082820484148315176151fc576151fb614b55565b5b5092915050565b60006020828403121561521957615218613535565b5b600082013567ffffffffffffffff8111156152375761523661353a565b5b61524384828501614492565b91505092915050565b600082905092915050565b615261838361524c565b67ffffffffffffffff81111561527a57615279614395565b5b6152848254614889565b61528f828285614dd5565b6000601f8311600181146152be57600084156152ac578287013590505b6152b68582614e46565b86555061531e565b601f1984166152cc86614a14565b60005b828110156152f4578489013582556001820191506020850194506020810190506152cf565b86831015615311578489013561530d601f891682614e28565b8355505b6001600288020188555050505b5050505050505056fea26469706673582212202c5e153d026b6b595ddc0d6bd255cacdc8b1d14c544c2140e3e071ac6c4480a864736f6c63430008120033",
  "linkReferences": {},
  "deployedLinkReferences": {}
}